:02000002D0002C
:1040000000400D00F4600D00000006000C000501EA
:0840100004017E050000000020
:04401800E85C0D0053
:10401C0009480A49884208B505D0094A824202D0AB
:10402C00121A01F0FBFD0748074A0021121A01F091
:10403C0000FE014808BD00BF3CE3032060600D009A
:10404C00A8E30320A8E30320F0E7032070B501F0F8
:10405C0011F9074C074BE41AA40800251E46A5428B
:10406C0004D056F8253098470135F8E770BD00BFED
:10407C0058600D001C600D0000F016B808B500F07B
:10408C003BF8BDE8084001F0C3B800F09BBA00F063
:10409C00A1BA00F09FBA0078B0FA80F040097047DE
:1040AC00012303707047000037B5114B114C188871
:1040BC00032101F02FFC0025B4234FF40872019367
:1040CC0000954FF416630221204601F0C7FA2946E9
:1040DC00204601F084FA4FF4FA7001F005F900F073
:1040EC000DFD4FF4E13103B0BDE8304000F0FABCF7
:1040FC003CE30320ACE3032030B52D4B89B018888A
:10410C0001F019FC0446962001F0EEF8012C4CD17C
:10411C00284D2968B42904DC14312748296001F0A2
:10412C005EFA2968B4292CDD224B2348B439196076
:10413C0001F055FA214B19680A22013104A81960C3
:10414C0001F06EFB1E4B049A1B788DF800301D4954
:10415C003C2302A800F0BCFE039C7CB16368013BCD
:10416C0063605BB9236820469B689847A368013B52
:10417C00A3601BB923682046DB68984704A801F0AC
:10418C00F7FA00F0BBFC104901F0F9F800F0B6FCAE
:10419C000A220446296804A801F042FB049920462F
:1041AC0001F0EDF804A801F0E3FA09B030BD00BF4E
:1041BC003CE30320BCE30320ACE30320C0E3032077
:1041CC00C4E30320FC5C0D00095D0D0008B5054B34
:1041DC0000221A7000F022F90348BDE8084001F0F3
:1041EC0029BA00BFC4E30320ACE3032008B5024B9B
:1041FC001B681B68019308BD4C02030008B5024BF9
:10420C001B685B68019308BD4C02030008B5024BA8
:10421C001B681B69019308BD4C02030008B5024BD7
:10422C001B685B69019308BD4C02030008B5024B87
:10423C001B689B69019308BD4C02030008B5024B37
:10424C001B68DB69019308BD4C02030008B5024BE7
:10425C001B681B6A019308BD4C02030008B5024B96
:10426C001B681B69019308BD2402030008B5024BAF
:10427C001B685B69019308BD2402030008B5024B5F
:10428C001B689B69019308BD2402030008B5024B0F
:10429C001B681B6A019308BD2802030008B5024B7A
:1042AC001B685B6A019308BD2802030008B5024B2A
:1042BC001B689B6A019308BD2802030008B5024BDA
:1042CC001B68DB6A019308BD2802030008B5024B8A
:1042DC001B681B6B019308BD2802030008B5024B39
:1042EC001B685B6B019308BD2802030008B5024BE9
:1042FC001B681B6C019308BD2802030008B5024B18
:10430C001B681B68019308BD3C02030008B5024BF7
:10431C001B68DB68019308BD3C02030008B5024B27
:10432C001B681B69019308BD3C02030008B5024BD6
:10433C001B685B69019308BD3C02030008B5024B86
:10434C001B689B69019308BD3C02030008B5024B36
:10435C001B68DB69019308BD3C02030008B5024BE6
:10436C001B681B6A019308BD3C02030008B5024B95
:10437C001B689B6A019308BD3C02030008B5024B05
:10438C001B685B69019308BD6402030008B5024B0E
:10439C001B689B68019308BD4802030008B5024BDB
:1043AC001B681B69019308BD4802030008B5024B4A
:1043BC001B685B69019308BD4802030008B5024BFA
:1043CC001B681B6B019308BD4802030008B5024B28
:1043DC001B685B6C019308BD4802030008B5024BD7
:1043EC001B685B68019308BD1802030008B5024BFB
:1043FC001B685B69019308BD1802030008B5024BEA
:10440C001B68DB69019308BD3002030008B5024B41
:10441C001B681B6A019308BD3002030008B5024BF0
:10442C001B681B68019308BD2C02030008B5024BE6
:10443C001B685B68019308BD2C02030008B5024B96
:10444C001B689B68019308BD2C02030008B5024B46
:10445C001B68DB68019308BD2C02030008B5024BF6
:10446C001B685B69019308BD2C02030008B5024B65
:10447C001B689B68019308BD6802030008B5024BDA
:10448C001B68DB68019308BD6802030008B5024B8A
:10449C001B685B69019308BD4402030008B5024B1D
:1044AC001B681B6A019308BD4402030008B5024B4C
:1044BC001B68DB6B019308BD4402030008B5024B7B
:1044CC001B685B68019308BD4002030008B5024BF2
:1044DC001B689B68019308BD4002030008B5024BA2
:1044EC001B68DB68019308BD4002030008B5024B52
:1044FC001B681B69019308BD4002030008B5024B01
:10450C001B685B69019308BD4002030008B5024BB0
:10451C001B689B69019308BD4002030008B5024B60
:10452C001B68DB69019308BD4002030008B5024B10
:10453C001B681B6A019308BD4002030008B5024BBF
:10454C001B681B6B019308BD4002030008B5024BAE
:10455C001B685B6B019308BD4002030008B5024B5E
:10456C001B685B68019308BD2002030008B5024B71
:10457C001B685B69019308BD2002030008B5024B60
:10458C001B68DB6C019308BD2002030008B5024BCD
:10459C001B685B6D019308BD2002030008B5034B3B
:1045AC001B68D3F88830019308BD0000200203007B
:1045BC0008B5034B1B68D3F89430019308BD000079
:1045CC002002030008B5024B1B681B68019308BD51
:1045DC001C02030008B5024B1B685B68019308BD05
:1045EC001C02030008B5024B1B689B68019308BDB5
:1045FC001C02030008B5024B1B68DB6A019308BD63
:10460C001C02030008B5024B1B681B6B019308BD11
:10461C001C02030010B58368044613B10322014643
:10462C009847204610BD00231A464068FFF746BF46
:10463C00002202214068FFF751BF0022114640685A
:10464C00FFF744BF002211464068FFF74FBF00231D
:10465C001A4619464068FFF751BF00231A461946FF
:10466C004068FFF753BF002281F001014068FFF75B
:10467C0055BF00224068FFF761BF00221146406819
:10468C00FFF764BF002211464068FFF74FBF2DE9CA
:10469C00F043002495B016460D46074600F08EFAFE
:1046AC00214620220CA8009401F0C3FA40230C935D
:1046BC0021466B460CAA3046FFF7E0FE0446002864
:1046CC0044D1024601216868FFF710FF02218046A1
:1046DC0022466868FFF70AFF009E81462146002E9D
:1046EC0034D0002932D17368022B02D00A2B09D0A6
:1046FC002AE0B8F1000F27D071693846043100F078
:10470C008AFA20E0B9F1000F1ED07469112201A8B9
:10471C0001F08FFA06238DF8143001AD04F1080373
:10472C001834186859682A4603C20833A342154640
:10473C00F7D101A906A807AD00F04EFA0FCD3C1D2C
:10474C000FC42B6823700121F669C8E70098FFF7A6
:10475C008DFE384615B0BDE8F0830000024B034ACD
:10476C001A6000225A607047C8E303201C5D0D00DC
:10477C00002211464068FFF7B9BE0022114640687E
:10478C00FFF7D4BE002211464068FFF7DFBE0022BF
:10479C004068FFF7D3BE002281F001014068FFF7AB
:1047AC00BDBE00231A4619464068FFF7AFBE002372
:1047BC001A4619464068FFF7A1BE00221146406810
:1047CC00FFF784BE002202214068FFF787BE00235A
:1047DC001A464068FFF772BE024B04225A60024A26
:1047EC001A607047D0E30320505D0D000022114683
:1047FC004068FFF79BBE002211464068FFF7A6BE3B
:10480C0000224068FFF79ABE002281F00101406847
:10481C00FFF784BE00231A4601214068FFF776BEDD
:10482C0000231A4619464068FFF768BE002211465D
:10483C004068FFF75BBE002211464068FFF746BE9A
:10484C00002202214068FFF749BE00231A46406847
:10485C00FFF734BE38B5054688B104684CB1A3687F
:10486C001BB103222146204698471021204601F017
:10487C007AF828461421BDE8384001F074B838BDE8
:10488C0010B103685B681847704710B5036804469D
:10489C00BBB15868FFF77AFD78B923685A7C12B916
:1048AC005868FFF77BFD23685868FFF77FFD206889
:1048BC000023236028B1FFF7CDFF206808B1FFF774
:1048CC00C9FF204610BD000038B50C4B03600446F0
:1048DC00D0F8CC0108B1FFF7DCFBD4F8C45135B1EA
:1048EC002846FFF7D2FF0421284601F03CF8A068C7
:1048FC0008B1FFF7C5FF204638BD00BF845D0D0031
:10490C0038B50E4C0E4B23600025022304F5E470E1
:10491C006360A560C4F8C451C4F8C851FFF756FDD4
:10492C00084BC4F8CC5184F8D05123602046064A79
:10493C000649BDE8384001F011B800BFD8E30320A8
:10494C001C5D0D00845D0D00A8E30320D5480D000F
:10495C0010B5836804460BB901F007F8C368984793
:10496C00A3681BB1032221462046984720461021FC
:10497C00BDE8104000F0F7BF7047F8B50646154685
:10498C000C468F18BC4206D0336814F8011B9B6888
:10499C0030469847F6E72846F8BD0022007CFFF722
:1049AC0075BC0021007CFFF779BC0021007CFFF76F
:1049BC007DBC0021007CFFF781BC0021007CFFF74F
:1049CC0085BC10B51421044600F0CDFF204610BD67
:1049DC0010B504464FF47A730846A3600021044BCB
:1049EC00207461602360FFF781FC204610BD00BF7E
:1049FC00B85D0D000021007CFFF770BC0B680360F4
:104A0C0013B15A6801325A60704738B504680546CC
:104A1C007CB16368013B63605BB9236820469B688B
:104A2C009847A368013BA3601BB923682046DB6849
:104A3C009847284638BD41747047704708B5002127
:104A4C00007CFFF7F3FB30EA200028BF4FF0FF306B
:104A5C0008BD08B50121007CFFF7E8FB30EA200017
:104A6C0028BF4FF0FF3008BD08B5007CFFF7D6FB20
:104A7C0020EAE07008BD08B5007CFFF7C7FB20EA10
:104A8C00E07008BD007CFFF7E1BB10B514210446B3
:104A9C0000F069FF204610BD38B50446007C0D4679
:104AAC00FFF7BCFB002801DC607C28B12946207C88
:104ABC00FFF7C4FB20EAE07038BD000010B50446D7
:104ACC00002363604FF47A73A360054B23600123CA
:104ADC000846217463741146FFF788FB204610BD0D
:104AEC00E05D0D000022007CFFF788BB10B514229E
:104AFC000446002101F09DF8204610BD30B50E4D46
:104B0C0087B001A8FFF7F2FF296811F0010410D15A
:104B1C002846FFF7C0FA60B101AA21460748FFF703
:104B2C00CDFF2846FFF7BCFA054A0649034800F0BA
:104B3C0015FF024807B030BDACE50320B0E50320FB
:104B4C00A8E30320474A0D00704710B5182104460E
:104B5C0000F009FF204610BDF0B5037D062B8DB08B
:104B6C000E4600F104074FF0000402D000F10805D6
:104B7C0018E00CAD394605F8304D2F232A460A2093
:104B8C00FFF7FCFB284601F0A0F833680246DB680F
:104B9C002946304698470FE024B12E21304600F0CC
:104BAC00DFFB044415F8011D0A22304600F01EFC00
:104BBC00BD420444F0D120460DB0F0BD10B5054BFC
:104BCC000446112240F8043B002101F032F8204643
:104BDC0010BD00BF105E0D000346074A10B543F828
:104BEC00042B01F1100251F8044B43F8044B914291
:104BFC00F9D10A781A7010BD105E0D0010B59DF831
:104C0C00084044EA032343EA024242EA01610423D6
:104C1C004160037510BD37B50D788B784A78C9782B
:104C2C0000912946FFF7EAFF03B030BD7047002022
:104C3C00704710B51021044600F095FE204610BDBB
:104C4C0008B508B1FFF7F5FF08BD0022026010B5EA
:104C5C004FF69C728280B1F9044084808A8002688D
:104C6C000C6804600A6010BD10B504460068FFF7BC
:104C7C00B1FC204610BD38B5C468F4B12378022BC2
:104C8C0003D104F10C00FFF7EFFF656835B128463E
:104C9C00FFF7C0FC1021284600F065FEA56835B171
:104CAC002846FFF7B7FC1021284600F05CFE204692
:104CBC001421BDE8384000F056BE38BD13B504468B
:104CCC0091E8050000234B600B602060626001A836
:104CDC0001930093FFF799FE204602B010BDF7B583
:104CEC000C4602AD54F8043B45F8083D06460F4609
:104CFC0001A82146FFF782FE29463046FFF7DEFF6A
:104D0C0001A8FFF782FE2046FFF77FFE38460821F8
:104D1C0000F029FE304603B0F0BD13B50B46044637
:104D2C0003C88DE8030093E8030084E803009DE8C2
:104D3C00030083E8030002B010BD000038B5002367
:104D4C000446036010200D46FFF79FF928B101239C
:104D5C0043608360024B0360C5602060204638BD11
:104D6C00245E0D00826810B50AB900F0FEFDC36820
:104D7C00BDE81040184708B5006800F11001FFF7B6
:104D8C00F1FF08BD826810B50AB900F0EEFDC368EA
:104D9C00BDE81040184708B5006800F11001FFF796
:104DAC00F1FF08BD38B5002383608B6804460D46BF
:104DBC002BB102229847EB68E360AB68A3602046F6
:104DCC0038BD0000F0B589B004686846FFF73DFFB8
:104DDC0000238DF808304FF00202D4E84F3F002B2F
:104DEC0003D1C4E8412F0029F7D102D08DF8083047
:104DFC0063E014F10C0503D069462846FFF725FF44
:104E0C00BFF35F8F01236370002004F10803BFF32D
:104E1C005F8F53E8006F43E80002002AF9D1BFF31B
:104E2C005F8F002E49D0FFF7A9FB20B129463046F1
:104E3C00FFF798FF3AE0314602A8FFF7B3FFE068AE
:104E4C00B4F9105008B100F025FF06901020ADF811
:104E5C001C50FFF71AF90546E8B1002787601820A7
:104E6C00FFF713F9044688B10146876002A8FFF7E3
:104E7C0054FF049BA268A360059B049206A9E268F8
:104E8C00E36004F110000592FFF7DFFE0D4BEB60C1
:104E9C000D4B2C60AB6006A8FFF7E6FE02A8FFF7EF
:104EAC00B9FB002229460948FFF770FB3046FFF793
:104EBC00B1FB1021304600F056FD6846FFF7D4FEDA
:104ECC0009B0F0BD834D0D00F94F0D005D490D008B
:104EDC002DE9F04F8BB006460F46904699469DF84B
:104EEC0050A0FFF7D3FA07AD834630BB4FF62E73B5
:104EFC00059005A92846ADF81830FFF7A6FE14203A
:104F0C00FFF7C3F8044658B1022303700123437022
:104F1C00C0F804B0C0F808B029460C30FFF795FE75
:104F2C003046214640F8044BFFF708FF2846FFF7B0
:104F3C009BFE05A8FFF798FE52E000240C231420DA
:104F4C006C60AC600793FFF7A0F8014618B10470D1
:104F5C0044704460846004A80391FFF7EFFE224B79
:104F6C0008930820FFF791F8044628B1039B40F8FA
:104F7C00043B04A9FFF742FD00955FFA8AF34A4609
:104F8C00414638460994FFF789FA20B9039B5B78B0
:104F9C0003F0FF0283B1039B059304A906A8FFF756
:104FAC002DFD05A93046FFF789FE06A8FFF72DFD5C
:104FBC0004A8FFF72AFD13E04FF69C7305A903A87C
:104FCC000592ADF81830FFF7FDFE05A8FFF74CFE73
:104FDC0005A80999FFF783FE06A8FFF716FDDAE787
:104FEC0030460BB0BDE8F08F69510D00022AF8B5C0
:104FFC00044606D0032A17D0012A22D10B6803607D
:10500C001FE018200E68FFF740F8054650B13146F6
:10501C00FFF7C8FE3069B6F9147008B100F03AFE1B
:10502C002861AF8225600CE0046854B104F11000D3
:10503C00FFF71AFE2046FFF7EDFA1821204600F084
:10504C0092FC0020F8BD38B5002383608B680446C1
:10505C000D462BB102229847EB68E360AB68A36066
:10506C00204638BD022A70B5044606D0032A11D05A
:10507C00012A18D10B68036015E014200E68FFF7A5
:10508C0004F8054620B13146FFF7DDFF337C2B7465
:10509C00256008E0046834B12046FFF7BBFA142100
:1050AC00204600F060FC002070BD0000F0B500232D
:1050BC0087B00C46BFF35F8F50E8006F40E80032BA
:1050CC00002AF9D1BFF35F8F002E3FD01846FFF7AF
:1050DC0055FA074620B121463046FFF753FE2EE025
:1050EC00314601A8FFF7AFFF23788DF8143010205C
:1050FC00FEF7CBFF0546D0B187601420FEF7C5FF45
:10510C00044678B18760014601A8FFF706FE039BB1
:10511C00A268A360049B0392E268E3609DF81430DC
:10512C00049223740A4BEB600A4B2C60AB6001A811
:10513C00FFF770FA002229460748FFF727FA304696
:10514C00FFF768FA1021304600F00DFC07B0F0BDF7
:10515C00A34D0D0071500D005D490D0030B585B0AB
:10516C0004460D4668461146FFF7B9FD7CB124B2E2
:10517C0028460DB100F08EFD029002A96846ADF8EC
:10518C000C40FFF71FFE02A8FFF76EFD1DE0009814
:10519C008DF808404FF00102D0E84F3FA34203D1F5
:1051AC00C0E8412F0029F7D102D08DF808300CE06F
:1051BC0010F10C014FF0010318BF0373BFF35F8FA5
:1051CC00043000F8033CFFF771FF01A8FFF71DFC4A
:1051DC0005B030BD08B50C4B33B1FFF78FFC03683D
:1051EC001B699847002809DC084B63B100F064F98F
:1051FC0003681B699847002803DC08BDAFF30080E7
:10520C00F2E7AFF3008008BD0000000000000000D2
:10521C0008B5FFF7DFFFFFF7E9F8014B186008BD91
:10522C002CE7032007B5002300931A466FF0770193
:10523C00FFF7BEF903B05DF804FB000007B5438827
:10524C000A2B08D0502B09D1094B1B683BB103B07A
:10525C005DF804EB1847FFF7E5FF06E00023009329
:10526C001A466FF07701FFF7A3F903B05DF804FB62
:10527C00C4E5032010B5FFF7B1F8044600F0E2FCDA
:10528C00074B13B12046AFF3008000210448FFF711
:10529C000DF900210348BDE81040FFF77FB900BFAE
:1052AC000000000049520D0010B50446FFF7B2F99A
:1052BC00204610BD0348044A04490023836000F0D3
:1052CC004DBB00BFC8E50320A8E30320B5520D0079
:1052DC008A4230B507D0039D441AED1A6C43521A1A
:1052EC0094FBF2F4E01830BD0021FFF73FB9000049
:1052FC00024B1A68024B1A60704700BF40E3032050
:10530C00D8E50320014B024A1A607047DCE5032004
:10531C00D45E0D00F8B506460D468F180024BD422C
:10532C000CD0336815F8011B9B6830469847002851
:10533C0001DB0444F3E7002C08BF04462046F8BD0B
:10534C0070B505460C46084649B100F0BEFC2B680A
:10535C00024621462846DB68BDE87040184770BD00
:10536C0003689B68184738B50D210546FFF7F8FF11
:10537C000A2104462846FFF7F3FF204438BD38B510
:10538C000546FFF7DDFF04462846FFF7ECFF2044F7
:10539C0038BD30B58BB00B4600218DF82410012A96
:1053AC0098BF0A220DF12304B3FBF2F505FB12336F
:1053BC0003F0FF03092B94BF30333733DBB22146A4
:1053CC0004F801392B46002DEED1FFF7B9FF0BB0D5
:1053DC0030BD10B42AB903685DF8044B9B68C9B2A0
:1053EC001847D2B25DF8044BFFF7D3BFFFF7F1BFFC
:1053FC00024800230360FEF7E9BF00BFE0E503208D
:10540C0070474174704708B5007CFEF7AFFF20EA87
:10541C00E07008BD08B5007CFEF780FF20EAE07064
:10542C0008BD08B5007CFEF789FF30EA200028BFD4
:10543C004FF0FF3008BD08B5007CFEF777FF30EA6F
:10544C00200028BF4FF0FF3008BD007CFEF77EBF68
:10545C0010B51421044600F086FA204610BD70B534
:10546C00457C04460E4625B9007CFEF77FFF0028DC
:10547C0005DD3146207CBDE87040FEF747BF28466D
:10548C0070BD000010B5044608461146002262604B
:10549C004FF47A72A260054A226001222074627471
:1054AC001A46FEF72BFF204610BD00BF4C5F0D00C7
:1054BC00007CFEF753BF000038B50C4D296811F085
:1054CC00010411D12846FEF7E6FD68B1084A094BE4
:1054DC0009482146FFF7D6FF2846FEF7E1FD074AAB
:1054EC000749054800F03AFA034838BD7CE603202A
:1054FC0080E60320F8E50320E4E50320A8E303207D
:10550C000D540D0010B5044600F0DFFB01382318D4
:10551C002046984206D20278197800F8011B03F84D
:10552C000129F6E710BD70B50C46911E222920D832
:10553C002546294610B9234430220EE0B0FBF2F682
:10554C0002FB1600C1B205F8011B092894BF3031CB
:10555C00573105F8011C3046EBE7994202D201F8AD
:10556C00012BFAE7002320460B70FFF7CBFF2046F8
:10557C0070BD002070BD38B5031E0C4615460BDA05
:10558C00B3F1004F4FF02D0214BF584218460123BF
:10559C000A702A46194400E00123FFF7C4FF204695
:1055AC0038BD0000044B00204FF6FF721870588075
:1055BC009A80FEF7D3BF00BF04E70320B0F90020A8
:1055CC00531C0BD0438880888B4203D888420346F7
:1055DC0028BF0B46194690B2FEF750BE704737B540
:1055EC0004460846B4F90610B4F90820814203DCDD
:1055FC009042A8BF104600E00846A5886388009535
:10560C00FFF766FEE168014489B2204603B0BDE8AD
:10561C003040FFF7D3BFB4224FF6FF7302814FF433
:10562C0008720380428000234FF41662C38082808C
:10563C00C360704708B5FFF7EEFF08BD10B5044610
:10564C00B0F90000431C07D080B2FEF70FFE2046D5
:10565C00FFF7E1FF012010BD002010BD2DE9F04146
:10566C000D4604460221284690461F46FEF7DEFEF4
:10567C00022801D0002619E0284600F027F906463A
:10568C000028F7D0B4F90030013302D02046FFF7E0
:10569C00D5FFBDF91830E380BDF91C302580A4F886
:1056AC000280A78023812846FEF7D8FD3046BDE84E
:1056BC00F081704710B51021044600F054F92046D3
:1056CC0010BD000070B5084B0360044600250E4663
:1056DC0040F80C5FFEF772FE30462671FEF78EFE28
:1056EC00A560204670BD00BF7C5F0D000079FEF701
:1056FC008DBE002211464068FEF718BF00221146ED
:10570C004068FEF723BF00224068FEF717BF002257
:10571C0081F001014068FEF701BF00231A461946CB
:10572C004068FEF7F3BE00231A4619464068FEF7A0
:10573C00E5BE002211464068FEF7D8BE0022114695
:10574C004068FEF7C3BE002202214068FEF7C6BEC9
:10575C0000231A464068FEF7B1BE0000024B03223C
:10576C005A60024A1A6070470CE703208C5F0D00E8
:10577C0010B504460068FEF72DFF204610BD10B58D
:10578C000446006808B1FEF725FF00232360A360E0
:10579C00636010BD38B504460D4600680131FEF754
:1057AC0021FF10B184E82100012038BD10B5036839
:1057BC00044613B143688B4207D22046FFF7EAFF39
:1057CC0020B1A3680BB922681370012010BD70B50D
:1057DC000E46114604461546FFF7E8FF18B9204659
:1057EC00FFF7CDFF09E02A463146A560206800F09E
:1057FC0015FA2268A3680021D154204670BD38B533
:10580C0005460C4641B1084600F05FFA21460246B7
:10581C002846FFF7DCFF01E0FFF7B1FF284638BD53
:10582C0010B5044600238AB023606360A360237321
:10583C00084601A9FFF79FFE01A92046FFF7DFFFED
:10584C0020460AB010BD000038B50B4D296811F088
:10585C0001040FD12846FEF71EFC58B1214607481B
:10586C00FFF7B6F82846FEF71BFC054A0549034826
:10587C0000F074F8014838BD14E7032018E7032042
:10588C00A8E3032085490D0070B50C4C0C4E0D4D52
:10589C0000212046FFF716FF20460B4C32462946C6
:1058AC0000F05CF801212046FFF70CFF3246294638
:1058BC002046BDE8704000F051B800BF30E703202F
:1058CC00A8E30320BF560D0040E7032010B50446A3
:1058DC000F48FFF70BFF28B1A4F10B03022B01D8E3
:1058EC00002010BDFFF7B0FFFFF784F808B1012CC2
:1058FC00F6D9FFF7E1FDFFF7DBFD18B1A4F10903C1
:10590C00012BEDD9232C8CBF0020012010BD00BF32
:10591C0030E70320232838B504460D460AD8FF2962
:10592C0008D0FFF7D3FF28B129462046BDE8384000
:10593C00FEF784BD38BD10B50446FEF787FD04386C
:10594C00C0B2012808D92046FFF7C0FF20B120467D
:10595C00BDE81040FEF782BD002010BD0B4601468D
:10596C00184600F04DB9FEF792BB08B5FEF742FEA3
:10597C00184B1A68D1075CBF01221A60164B1A68C3
:10598C00D2075CBF01221A60144B1A68D0075CBFA7
:10599C0001221A60124B1A68D1075CBF01221A60EF
:1059AC00104B1A68D2075CBF01221A600E4B1A68A2
:1059BC00D0075CBF01221A600C4B1A68D1075CBF80
:1059CC0001221A600A4B1A68D2075CBF01221A60C6
:1059DC00704700BF6CE7032068E7032064E70320EF
:1059EC0060E703205CE7032058E7032054E703201B
:1059FC0050E70320244B1A68D0075CBF01221A60C1
:105A0C00224B1A68D1075CBF01221A60204B1A681E
:105A1C00D2075CBF01221A601E4B1A68D0075CBF0C
:105A2C0001221A601C4B1A68D1075CBF01221A6054
:105A3C001A4B1A68D2075CBF01221A60184B1A68FD
:105A4C00D0075CBF01221A60164B1A68D1075CBFE5
:105A5C0001221A60144B1A68D2075CBF01221A602B
:105A6C00124B1A68D0075CBF01221A60104B1A68DF
:105A7C00D1075CBF01221A600E4B1A68D2075CBFBB
:105A8C0001221A60704700BF9CE7032098E70320AF
:105A9C0094E7032090E703208CE7032088E703209A
:105AAC0084E7032080E703207CE7032078E70320CA
:105ABC0074E7032070E70320244B1A68D0075CBFFF
:105ACC0001221A60224B1A68D1075CBF01221A60AE
:105ADC00204B1A68D2075CBF01221A601E4B1A6851
:105AEC00D0075CBF01221A601C4B1A68D1075CBF3F
:105AFC0001221A601A4B1A68D2075CBF01221A6085
:105B0C00184B1A68D0075CBF01221A60164B1A6832
:105B1C00D1075CBF01221A60144B1A68D2075CBF14
:105B2C0001221A60124B1A68D0075CBF01221A605E
:105B3C00104B1A68D1075CBF01221A600E4B1A6811
:105B4C00D2075CBF01221A60704700BFCCE703206C
:105B5C00C8E70320C4E70320C0E70320BCE7032009
:105B6C00B8E70320B4E70320B0E70320ACE7032039
:105B7C00A8E70320A4E70320A0E70320184B1A682A
:105B8C00D1075CBF01221A60164B1A68D2075CBFA2
:105B9C0001221A60144B1A68D0075CBF01221A60EC
:105BAC00124B1A68D1075CBF01221A60104B1A689D
:105BBC00D2075CBF01221A600E4B1A68D0075CBF7B
:105BCC0001221A600C4B1A68D1075CBF01221A60C3
:105BDC000A4B1A68D2075CBF01221A60704700BFDB
:105BEC00ECE70320E8E70320E4E70320E0E70320E9
:105BFC00DCE70320D8E70320D4E70320D0E7032019
:105C0C0010B5054C13462CB10A4601460220AFF3E1
:105C1C00008010BD204610BD0000000010B5431ED2
:105C2C000A44914204D011F8014B03F8014FF8E7F4
:105C3C0010BD02440346934202D003F8011BFAE75D
:105C4C007047000038B5124B1C68A36B0546D3B9DE
:105C5C001820FEF7B7FC43F20E33A06303804AF61C
:105C6C00CD33438041F2342383804EF26D63C38085
:105C7C004DF6EC630381052343810B2383810122C1
:105C8C000023C0E90423A36B00221D615A6138BDB7
:105C9C00A4E30320024B0146186800F003B800BFD0
:105CAC00A4E3032070B5064608460C4600F00DF838
:105CBC00451C29463046FEF7A5FC064618B12A4677
:105CCC002146FFF7ABFF304670BD034613F8012B9E
:105CDC00002AFBD1181A0138704700001D400D0036
:105CEC0059400D0085400D0089400D00000000005A
:105CFC007265736574436F756E74657200506F7363
:105D0C006974696F6E3A200000000000000000000A
:105D1C0033460D003D460D0047460D0051460D0023
:105D2C005B460D0067460D0073460D007F460D0067
:105D3C0087460D0091460D009B460D0000000000AB
:105D4C0000000000DB470D00D1470D00C7470D00D8
:105D5C007D470D00BB470D00AF470D00A3470D005D
:105D6C009B470D0091470D0087470D009B460D008A
:105D7C00000000000000000057480D004D480D00C9
:105D8C0043480D0039480D002D480D0021480D00E9
:105D9C0015480D000D480D0003480D00F9470D0086
:105DAC009B460D00000000000000000085490D001E
:105DBC00CF490D00A7490D0087490D00AF490D00D3
:105DCC00B7490D00BF490D00C7490D000000000088
:105DDC0000000000474A0D00974A0D00A54A0D002F
:105DEC0021530D00834A0D00494A0D005F4A0D00F6
:105DFC00914A0D00754A0D00434A0D000000000049
:105E0C0000000000654B0D00554B0D00574B0D006D
:105E1C000000000000000000394C0D003F4C0D004C
:105E2C00834C0D004D4C0D003B4C0D005A00252BA6
:105E3C003033643A253032750025592D256D2D25CA
:105E4C00645425483A254D3A2553257A00617363ED
:105E5C0074696D6500626175640053657269616C8B
:105E6C000053657269616C31007479706500706102
:105E7C0072616D00636D6400696400686E64007328
:105E8C0074726D0066696C74006C766C006164648D
:105E9C0048616E646C65720072656D6F7665486101
:105EAC006E646C657200656E756D48616E646C65D0
:105EBC007273004A534F4E53747265616D4C6F6729
:105ECC0048616E646C657200617070002530313011
:105EDC007520005D20002564002C200028293A2024
:105EEC0000205B00636F6465203D20002569006421
:105EFC00657461696C73203D20000D0A0066006CAE
:105F0C006E00666E00636F64650064657461696C35
:105F1C00006E6F6E6500747261636500696E666F0A
:105F2C00007761726E006572726F720070616E69DB
:105F3C006300616C6C0000000000000000000000B9
:105F4C000D540D005D540D006B540D0021530D00CC
:105F5C0021540D0043540D002F540D0057540D00C7
:105F6C000F540D0013540D00000000000000000041
:105F7C00BF560D00C1560D000000000000000000CF
:105F8C005D570D0053570D0049570D003F570D003D
:105F9C0033570D0027570D001B570D0013570D00DD
:105FAC0009570D00FF560D009B460D000000000028
:105FBC0000000000000000000000000000000000D5
:105FCC0000000000000000000000000000000000C5
:105FDC0000000000000000000000000000000000B5
:105FEC0000000000000000000000000000000000A5
:105FFC000000000000000000000000000000000095
:10600C000000000000000000000000004300000041
:10601C00D9410D0069470D00E5470D000D490D00F4
:10602C00C1520D00FD520D0011530D00FD530D001A
:10603C00B1550D0069570D0095580D007D590D0097
:10604C00015A0D00C55A0D00895B0D0000000000BF
:04605C000000000040
:1060600003000000595E0D0000000000B85F0D0045
:10607000D85F0D00F85F0D00000000000000000078
:10608000000000000000000018600D00000000008B
:106090000000000000000000000000000000000000
:1060A00000000000000000000000000000000000F0
:1060B00000000000000000000000000000000000E0
:0C60C000000000000000000044E303208A
:1060CC00FFFFFFFF00000102030405060708090A91
:1060DC000B0C0D0E0F101112131415161718191A8C
:0860EC001B1C1D1E1F202800D3
:0460F4007856341294
:04000003D000401CCD
:00000001FF
