:02000002D0002C
:1040000000400D0000730D00000006000C000501CB
:0840100004017E050000000020
:04401800AC6E0D007D
:1040200009480A49884208B505D0094A824202D0A7
:10403000121A02F0DBFE0748074A0021121A02F0AA
:10404000E0FE014808BD00BF50E3032068720D0088
:10405000C0E30320C0E30320F0E7032070B501F0C4
:1040600065F9074C074BE41AA40800251E46A54233
:1040700004D056F8253098470135F8E770BD00BFE9
:1040800054720D0018720D0000F015B808B500F05C
:1040900033F8BDE8084001F017B900F0FDBA00F0B0
:1040A00003BB00F001BB0078B0FA80F04009704714
:1040B00001230370704708B500F07CFD4FF4E13137
:1040C000BDE8084000F06ABD38B5046805467CB11B
:1040D0006368013B63605BB9236820469B6898472F
:1040E000A368013BA3601BB923682046DB6898479F
:1040F000284638BD00000000F0B52DED048B744B50
:1041000089B0188801F028FC02F07CF964A3D3E997
:10411000002302F0DDF964A3D3E9002302F002FBDF
:1041200002460B4600206B4902F0FCFA5CA3D3E97F
:10413000002302F0CDF90022664B02F015F80022B0
:10414000654B02F0C5F941EC100B01F06FFD55EC29
:10415000104B10EE100A56A3D3E90023294602F0B3
:10416000B7F922462B4602F0B3F922462B4602F05D
:10417000AFF951A3D3E9002306460F46204629464E
:1041800002F0A6F94EA3D3E9002301F0EFFF0246A7
:104190000B463046394601F0E9FF02460B46002047
:1041A0004E4902F0BFFA48A3D3E9002301F0DCFF37
:1041B00000224B4B41EC190B02F08AF90022494BCB
:1041C00002F0B0FA0022484B01F0D0FF41EC180B8E
:1041D00000F0F0FC454901F022F900F0EBFCB0EEF4
:1041E000490AF0EE690A0446062104A801F03AFBE8
:1041F0000499204601F013F904A801F0DBFA00F05D
:10420000D9FC3B4901F00BF900F0D4FCB0EE480AB0
:10421000F0EE680A0446062104A801F023FB049985
:10422000204601F0FCF8334C04A801F0C3FAB0EECC
:10423000490AF0EE690A062104A801F013FB23786D
:10424000049A2D498DF8003002A83C2300F09CFE12
:1042500003A8FFF739FF04A801F0ACFAB0EE480A52
:10426000F0EE680A062104A801F0FCFA2378049A0B
:1042700022498DF8003002A83C2300F085FE03A8F7
:10428000FFF722FF04A801F095FA4FF47A7001F0CD
:104290007BF809B0BDEC048BF0BD00BFAFF300802C
:1042A0006666666666660A400000000000FEAF4073
:1042B000190D1714EB88773EC2C3B46FEEAF2E3FD3
:1042C00090B8DE6EFD7F523F66666666661271408C
:1042D00050E303200000244000408F400000F03FE6
:1042E000000022400000144000004040C06E0D005D
:1042F000D96E0D00C4E30320F56E0D00FD6E0D00B8
:10430000024B00221A7000F003B900BFC4E303207F
:1043100008B5024B1B681B68019308BD4C020300E3
:1043200008B5024B1B685B68019308BD4C02030093
:1043300008B5024B1B681B69019308BD4C020300C2
:1043400008B5024B1B685B69019308BD4C02030072
:1043500008B5024B1B689B69019308BD4C02030022
:1043600008B5024B1B68DB69019308BD4C020300D2
:1043700008B5024B1B681B6A019308BD4C02030081
:1043800008B5024B1B681B6A019308BD2802030095
:1043900008B5024B1B685B6A019308BD2802030045
:1043A00008B5024B1B689B6A019308BD28020300F5
:1043B00008B5024B1B68DB6A019308BD28020300A5
:1043C00008B5024B1B681B6B019308BD2802030054
:1043D00008B5024B1B685B6B019308BD2802030004
:1043E00008B5024B1B681B6C019308BD2802030033
:1043F00008B5024B1B681B68019308BD3C02030013
:1044000008B5024B1B68DB68019308BD3C02030042
:1044100008B5024B1B681B69019308BD3C020300F1
:1044200008B5024B1B685B69019308BD3C020300A1
:1044300008B5024B1B689B69019308BD3C02030051
:1044400008B5024B1B68DB69019308BD3C02030001
:1044500008B5024B1B681B6A019308BD3C020300B0
:1044600008B5024B1B689B6A019308BD3C02030020
:1044700008B5024B1B685B69019308BD6402030029
:1044800008B5024B1B689B68019308BD48020300F6
:1044900008B5024B1B681B69019308BD4802030065
:1044A00008B5024B1B685B69019308BD4802030015
:1044B00008B5024B1B681B6B019308BD4802030043
:1044C00008B5024B1B685B6C019308BD48020300F2
:1044D00008B5024B1B685B68019308BD1802030016
:1044E00008B5024B1B685B69019308BD1802030005
:1044F00008B5024B1B68DB69019308BD300203005D
:1045000008B5024B1B681B6A019308BD300203000B
:1045100008B5024B1B681B68019308BD2C02030001
:1045200008B5024B1B685B68019308BD2C020300B1
:1045300008B5024B1B681B6B019308BD2C020300DE
:1045400008B5024B1B689B68019308BD6802030015
:1045500008B5024B1B68DB68019308BD68020300C5
:1045600008B5024B1B685B69019308BD4402030058
:1045700008B5024B1B681B6A019308BD4402030087
:1045800008B5024B1B68DB6B019308BD44020300B6
:1045900008B5024B1B685B68019308BD400203002D
:1045A00008B5024B1B689B68019308BD40020300DD
:1045B00008B5024B1B68DB68019308BD400203008D
:1045C00008B5024B1B681B69019308BD400203003C
:1045D00008B5024B1B685B69019308BD40020300EC
:1045E00008B5024B1B689B69019308BD400203009C
:1045F00008B5024B1B68DB69019308BD400203004C
:1046000008B5024B1B681B6A019308BD40020300FA
:1046100008B5024B1B681B6B019308BD40020300E9
:1046200008B5024B1B685B6B019308BD4002030099
:1046300008B5024B1B685B68019308BD20020300AC
:1046400008B5024B1B685B69019308BD200203009B
:1046500008B5024B1B68DB6C019308BD2002030008
:1046600008B5024B1B685B6D019308BD2002030077
:1046700008B5034B1B68D3F88830019308BD0000D0
:104680002002030008B5034B1B68D3F89430019354
:1046900008BD00002002030008B5024B1B681B6820
:1046A000019308BD1C02030008B5024B1B685B6840
:1046B000019308BD1C02030008B5024B1B689B68F0
:1046C000019308BD1C02030008B5024B1B68DB6A9E
:1046D000019308BD1C02030008B5024B1B681B6B4D
:1046E000019308BD1C02030008B5024B1B68DB6B7D
:1046F000019308BD1C02030010B58368044613B182
:10470000032201469847204610BD00231A46406800
:10471000FFF73EBF002202214068FFF749BF002299
:1047200011464068FFF73CBF002211464068FFF782
:1047300047BF00231A4619464068FFF749BF0023C8
:104740001A4619464068FFF74BBF002281F001016D
:104750004068FFF74DBF00224068FFF759BF0022B5
:1047600011464068FFF75CBF002211464068FFF722
:1047700047BF2DE9F043002495B016460D46074685
:1047800000F078FA214620220CA8009402F039FBB0
:1047900040230C9321466B460CAA3046FFF7D8FE07
:1047A0000446002844D1024601216868FFF708FF4B
:1047B0000221804622466868FFF702FF009E81467C
:1047C0002146002E34D0002932D17368022B02D04A
:1047D0000A2B09D02AE0B8F1000F27D071693846BA
:1047E000043100F074FA20E0B9F1000F1ED07469B2
:1047F000112201A802F005FB06238DF8143001AD4B
:1048000004F108031834186859682A4603C20833AB
:10481000A3421546F7D101A906A807AD00F038FA62
:104820000FCD3C1D0FC42B6823700121F669C8E72A
:104830000098FFF785FE384615B0BDE8F08300000C
:10484000024B034A1A6000225A607047C8E30320F3
:10485000106F0D00002211464068FFF7B1BE002224
:1048600011464068FFF7CCBE002211464068FFF7B2
:10487000D7BE00224068FFF7CBBE002281F00101C5
:104880004068FFF7B5BE00231A4619464068FFF797
:10489000A7BE00231A4619464068FFF799BE0022BA
:1048A00011464068FFF77CBE002202214068FFF7F6
:1048B0007FBE00231A464068FFF76ABE024B0422FF
:1048C0005A60024A1A607047D0E30320446F0D001B
:1048D000002211464068FFF793BE0022114640684F
:1048E000FFF79EBE00224068FFF792BE002281F0D3
:1048F00001014068FFF77CBE00231A460121406891
:10490000FFF76EBE00231A4619464068FFF760BEE7
:10491000002211464068FFF753BE0022114640684E
:10492000FFF73EBE002202214068FFF741BE002390
:104930001A464068FFF72CBE38B5054688B10468B2
:104940004CB1A3681BB10322214620469847102191
:10495000204601F01DF828461421BDE8384001F03A
:1049600017B838BD10B103685B681847704710B5B9
:1049700003680446BBB15868FFF782FD78B9236825
:104980005A7C12B95868FFF783FD23685868FFF70F
:1049900087FD20680023236028B1FFF7CDFF206842
:1049A00008B1FFF7C9FF204610BD000038B50C4B19
:1049B00003600446D0F8CC0108B1FFF772FBD4F8CD
:1049C000C45135B12846FFF7D2FF0421284600F034
:1049D000DFFFA06808B1FFF7C5FF204638BD00BF64
:1049E000786F0D0038B50E4C0E4B23600025022366
:1049F00004F5E4706360A560C4F8C451C4F8C851FC
:104A0000FFF75EFD084BC4F8CC5184F8D051236009
:104A10002046064A0649BDE8384000F0B4BF00BF52
:104A2000D8E30320106F0D00786F0D00C0E3032062
:104A3000AD490D0010B5836804460BB900F0AAFF1C
:104A4000C3689847A3681BB10322214620469847B4
:104A500020461021BDE8104000F09ABF7047F8B51D
:104A6000064615460C468F18BC4206D0336814F82B
:104A7000011B9B6830469847F6E72846F8BD0022A0
:104A8000007CFFF77DBC0021007CFFF781BC00218A
:104A9000007CFFF785BC0021007CFFF789BC00216A
:104AA000007CFFF78DBC10B51421044600F070FFA8
:104AB000204610BD10B504464FF47A730846A36033
:104AC0000021044B207461602360FFF789FC2046BD
:104AD00010BD00BFAC6F0D000021007CFFF778BC5B
:104AE0000B68036013B15A6801325A607047417411
:104AF0007047704708B50021007CFFF729FC30EAB9
:104B0000200028BF4FF0FF3008BD08B50121007C10
:104B1000FFF71EFC30EA200028BF4FF0FF3008BD31
:104B200008B5007CFFF70CFC20EAE07008BD08B572
:104B3000007CFFF7FDFB20EAE07008BD007CFFF77A
:104B400017BC10B51421044600F022FF204610BD0A
:104B500038B50446007C0D46FFF7F2FB002801DC67
:104B6000607C28B12946207CFFF7FAFB20EAE07040
:104B700038BD000010B50446002363604FF47A731B
:104B8000A360054B2360012308462174637411461A
:104B9000FFF7BEFB204610BDD46F0D000022007C45
:104BA000FFF7BEBB10B514220446002102F029F91C
:104BB000204610BD30B50E4D87B001A8FFF7F2FFBB
:104BC000296811F0010410D12846FFF76CFA60B192
:104BD00001AA21460748FFF7CDFF2846FFF768FAEC
:104BE000054A0649034800F0CEFE024807B030BD32
:104BF000ACE50320B0E50320C0E30320F34A0D0039
:104C0000704710B51821044600F0C2FE204610BDC2
:104C1000F0B5037D062B8DB00E4600F104074FF072
:104C2000000402D000F1080518E00CAD394605F883
:104C3000304D2F232A460A20FFF71AFC284602F09F
:104C40002CF933680246DB682946304698470FE066
:104C500024B12E21304600F0D3FB044415F8011D89
:104C60000A22304600F012FCBD420444F0D1204636
:104C70000DB0F0BD10B5054B0446112240F8043BC1
:104C8000002102F0BEF8204610BD00BF04700D00E8
:104C90000346074A10B543F8042B01F1100251F8FE
:104CA000044B43F8044B9142F9D10A781A7010BDB5
:104CB00004700D0010B59DF8084044EA032343EA50
:104CC000024242EA016104234160037510BD37B519
:104CD0000D788B784A78C97800912946FFF7EAFF6A
:104CE00003B030BD70470020704710B51021044656
:104CF00000F04EFE204610BD08B508B1FFF7F5FFE5
:104D000008BD0022026010B54FF69C728280B1F996
:104D1000044084808A8002680C6804600A6010BDC8
:104D200010B504460068FFF7BFFC204610BD38B53B
:104D3000C468F4B12378022B03D104F10C00FFF70F
:104D4000EFFF656835B12846FFF7D6FC10212846ED
:104D500000F01EFEA56835B12846FFF7CDFC1021F6
:104D6000284600F015FE20461421BDE8384000F02A
:104D70000FBE38BD13B5044691E8050000234B6013
:104D80000B602060626001A801930093FFF79CF91B
:104D9000204602B010BDF7B50C4602AD54F8043BF6
:104DA00045F8083D06460F4601A82146FFF798FE44
:104DB00029463046FFF7DEFF01A8FFF785F92046B8
:104DC000FFF782F93846082100F0E2FD304603B0D3
:104DD000F0BD13B50B46044603C88DE8030093E805
:104DE000030084E803009DE8030083E8030002B0A9
:104DF00010BD000038B500230446036010200D46A6
:104E0000FFF74BF928B1012343608360024B036035
:104E1000C5602060204638BD18700D00826810B54E
:104E20000AB900F0B7FDC368BDE81040184708B5DF
:104E3000006800F11001FFF7F1FF08BD826810B5AE
:104E40000AB900F0A7FDC368BDE81040184708B5CF
:104E5000006800F11001FFF7F1FF08BD38B500232D
:104E600083608B6804460D462BB102229847EB689D
:104E7000E360AB68A360204638BD0000F0B589B0A0
:104E800004686846FFF73DFF00238DF808304FF0B7
:104E90000202D4E84F3F002B03D1C4E8412F002980
:104EA000F7D102D08DF8083063E014F10C0503D07F
:104EB00069462846FFF725FFBFF35F8F0123637024
:104EC000002004F10803BFF35F8F53E8006F43E84D
:104ED0000002002AF9D1BFF35F8F002E49D0FFF7FF
:104EE000B7FB20B129463046FFF798FF3AE031463C
:104EF00002A8FFF7B3FFE068B4F9105008B101F061
:104F0000B1FF06901020ADF81C50FFF7C6F805461B
:104F1000E8B1002787601820FFF7BFF8044688B182
:104F20000146876002A8FFF754FF049BA268A360B4
:104F3000059B049206A9E268E36004F11000059263
:104F4000FFF7DFFE0D4BEB600D4B2C60AB6006A84E
:104F5000FFF7E6FE02A8FFF7CFFB0022294609482B
:104F6000FFF77EFB3046FFF7C7FB1021304600F00D
:104F70000FFD6846FFF7D4FE09B0F0BD2F4E0D00BF
:104F8000A5500D00354A0D002DE9F04F8BB00646B7
:104F90000F46904699469DF850A0FFF7E1FA07ADFD
:104FA000834630BB4FF62E73059005A92846ADF811
:104FB0001830FFF7A6FE1420FFF76FF8044658B12B
:104FC0000223037001234370C0F804B0C0F808B096
:104FD00029460C30FFF795FE3046214640F8044B39
:104FE000FFF708FF2846FFF79BFE05A8FFF798FE8E
:104FF00052E000240C2314206C60AC600793FFF790
:105000004CF8014618B1047044704460846004A8F0
:105010000391FFF7EFFE224B08930820FFF73DF8BE
:10502000044628B1039B40F8043B04A9FFF758FD50
:1050300000955FFA8AF34A46414638460994FFF7DD
:1050400097FA20B9039B5B7803F0FF0283B1039BBF
:10505000059304A906A8FFF743FD05A93046FFF70D
:1050600089FE06A8FFF730F804A8FFF72DF813E033
:105070004FF69C7305A903A80592ADF81830FFF709
:10508000FDFE05A8FFF74CFE05A80999FFF783FE72
:1050900006A8FFF719F8DAE730460BB0BDE8F08F45
:1050A00015520D00022AF8B5044606D0032A17D07F
:1050B000012A22D10B6803601FE018200E68FEF75A
:1050C000ECFF054650B13146FFF7C8FE3069B6F92E
:1050D000147008B101F0C6FE2861AF8225600CE0B3
:1050E000046854B104F11000FFF71AFE2046FFF7E0
:1050F00003FB1821204600F04BFC0020F8BD38B51A
:10510000002383608B6804460D462BB1022298472A
:10511000EB68E360AB68A360204638BD022A70B537
:10512000044606D0032A11D0012A18D10B68036067
:1051300015E014200E68FEF7B0FF054620B1314699
:10514000FFF7DDFF337C2B74256008E0046834B181
:105150002046FFF7D1FA1421204600F019FC002068
:1051600070BD0000F0B5002387B00C46BFF35F8F21
:1051700050E8006F40E80032002AF9D1BFF35F8F9A
:10518000002E3FD01846FFF763FA074620B12146AC
:105190003046FFF753FE2EE0314601A8FFF7AFFF80
:1051A00023788DF814301020FEF777FF0546D0B134
:1051B00087601420FEF771FF044678B187600146CE
:1051C00001A8FFF706FE039BA268A360049B03925D
:1051D000E268E3609DF81430049223740A4BEB609C
:1051E0000A4B2C60AB6001A8FFF786FA0022294623
:1051F0000748FFF735FA3046FFF77EFA10213046B0
:1052000000F0C6FB07B0F0BD4F4E0D001D510D0064
:10521000354A0D0030B585B004460D466846114646
:10522000FFF7B9FD7CB124B228460DB101F01AFE9A
:10523000029002A96846ADF80C40FFF71FFE02A8D5
:10524000FFF76EFD1DE000988DF808404FF0010259
:10525000D0E84F3FA34203D1C0E8412F0029F7D146
:1052600002D08DF808300CE010F10C014FF0010372
:1052700018BF0373BFF35F8F043000F8033CFFF7E0
:1052800071FF01A8FEF720FF05B030BD08B50C4B3B
:1052900033B1FFF78FFC03681B699847002809DCCE
:1052A000084B63B100F058F903681B699847002860
:1052B00003DC08BDAFF30080F2E7AFF3008008BD68
:1052C000000000000000000008B5FFF7DFFFFFF757
:1052D00007F9014B186008BD2CE7032007B5002330
:1052E00000931A466FF07701FFF7CCF903B05DF831
:1052F00004FB000007B543880A2B08D0502B09D1C6
:10530000094B1B683BB103B05DF804EB1847FFF78E
:10531000E5FF06E0002300931A466FF07701FFF7E0
:10532000B1F903B05DF804FBC4E5032010B5FFF745
:10533000CFF8044601F06EFD074B13B12046AFF3E2
:10534000008000210448FFF71BF900210348BDE855
:105350001040FFF78DB900BF00000000F5520D00AE
:1053600010B50446FFF7C8F9204610BD0348044AAB
:1053700004490023836000F006BB00BFC8E503209A
:10538000C0E3032061530D000021FFF759B900006D
:10539000024B1A68024B1A60704700BF54E30320A7
:1053A000D8E50320014B024A1A607047DCE5032070
:1053B000C8700D00F8B506460D468F180024BD4292
:1053C0000CD0336815F8011B9B68304698470028BD
:1053D00001DB0444F3E7002C08BF04462046F8BD77
:1053E00070B505460C46084649B101F056FD2B68DC
:1053F000024621462846DB68BDE87040184770BD6C
:1054000003689B68184738B50D210546FFF7F8FF7C
:105410000A2104462846FFF7F3FF204438BD38B57B
:105420000546FFF7DDFF04462846FFF7ECFF204462
:1054300038BD30B58BB00B4600218DF82410012A01
:1054400098BF0A220DF12304B3FBF2F505FB1233DA
:1054500003F0FF03092B94BF30333733DBB221460F
:1054600004F801392B46002DEED1FFF7B9FF0BB040
:1054700030BD10B42AB903685DF8044B9B68C9B20B
:105480001847D2B25DF8044BFFF7D3BFFFF7F1BF67
:10549000024800230360FFF713B800BFE0E50320D4
:1054A00070474174704708B5007CFEF7D9FF20EAC9
:1054B000E07008BD08B5007CFEF7AAFF20EAE070A6
:1054C00008BD08B5007CFEF7B3FF30EA200028BF16
:1054D0004FF0FF3008BD08B5007CFEF7A1FF30EAB1
:1054E000200028BF4FF0FF3008BD007CFEF7A8BFAA
:1054F00010B51421044600F04BFA204610BD70B5DB
:10550000457C04460E4625B9007CFEF7A9FF00281D
:1055100005DD3146207CBDE87040FEF771BF2846AE
:1055200070BD000010B504460846114600226260B6
:105530004FF47A72A260054A2260012220746274DC
:105540001A46FEF755FF204610BD00BF40710D0002
:10555000007CFEF77DBF000038B50C4D296811F0C6
:10556000010411D12846FEF79EFD68B1084A094B97
:1055700009482146FFF7D6FF2846FEF799FD074A5E
:105580000749054800F0FFF9034838BD7CE60320D1
:1055900080E60320F8E50320E4E50320C0E30320D0
:1055A000A1540D0010B5044601F077FC0138231812
:1055B0002046984206D20278197800F8011B03F8B9
:1055C0000129F6E710BD70B50C46911E222920D89E
:1055D0002546294610B9234430220EE0B0FBF2F6EE
:1055E00002FB1600C1B205F8011B092894BF303137
:1055F000573105F8011C3046EBE7994202D201F819
:10560000012BFAE7002320460B70FFF7CBFF204663
:1056100070BD002070BD0000044B00204FF6FF72EB
:10562000187058809A80FFF703B800BF04E7032082
:10563000704710B51021044600F0AAF9204610BDAD
:1056400070B5084B0360044600250E4640F80C5F19
:10565000FEF72EFF30462671FEF74AFFA560204672
:1056600070BD00BF70710D000079FEF749BF0022C8
:1056700011464068FEF7C4BF002211464068FEF79D
:10568000CFBF00224068FEF7C3BF002281F00101B6
:105690004068FEF7ADBF00231A4619464068FEF782
:1056A0009FBF00231A4619464068FEF791BF0022AB
:1056B00011464068FEF784BF002211464068FEF79D
:1056C0006FBF002202214068FEF772BF00231A4616
:1056D0004068FEF75DBF0000024B03225A60024A99
:1056E0001A6070470CE7032080710D002DE9F14F1F
:1056F00059EC108B07460E460022002310EE100ACC
:10570000494601F057F928B109F1004399462D2384
:1057100033700136002301240A22D9B28F4202D904
:1057200054430133F9E7204600F06CFE42464B46F5
:1057300000F0CEFE82468B4601F0B2F980468946E3
:1057400000F090FE02460B465046594600F00CFD14
:105750000022174B01F042F918B118F1010849F184
:105760000009E51722462B464046494601F080F9DC
:1057700001230A223146FFF726FFAFB1304601F080
:105780008CFB2E2333540130064422462B464046E0
:10579000494601F06DF93B46104631460A2201B0F8
:1057A000BDE8F04FFFF70FBF01B0BDE8F08F00BFBD
:1057B0000000E03F10B504460068FEF775FF204684
:1057C00010BD10B50446006808B1FEF76DFF002358
:1057D0002360A360636010BD38B504460D460068C1
:1057E0000131FEF769FF10B184E82100012038BDC6
:1057F00010B50368044613B143688B4207D22046B4
:10580000FFF7EAFF20B1A3680BB9226813700120EB
:1058100010BD70B50E46114604461546FFF7E8FF69
:1058200018B92046FFF7CDFF09E02A463146A560AA
:10583000206801F0DBFA2268A3680021D1542046D9
:1058400070BD38B505460C4641B1084601F025FB50
:10585000214602462846FFF7DCFF01E0FFF7B1FFD3
:10586000284638BD10B500238AB004460360436063
:1058700083600373C8B201A9FFF738FF01A920466E
:10588000FFF7DFFF20460AB010BD000038B50B4D12
:10589000296811F001040FD12846FEF704FC58B125
:1058A00021460748FFF706F92846FEF701FC054A9E
:1058B0000549034800F067F8014838BD14E70320A4
:1058C00018E70320C0E303205D4A0D0070B50C4CBF
:1058D0000C4E0D4D00212046FFF7B2FE20460B4C2A
:1058E0003246294600F04FF801212046FFF7A8FE76
:1058F000324629462046BDE8704000F044B800BF5B
:1059000030E70320C0E3032031560D0040E70320B9
:1059100010B504460F48FFF7A7FE28B1A4F10B030A
:10592000022B01D8002010BDFFF7B0FFFFF7D4F81D
:1059300008B1012CF6D9FFF70FFEFFF709FE18B1E9
:10594000A4F10903012BEDD9232C8CBF00200120E9
:1059500010BD00BF30E703200D2810B504469CBFE2
:105960000E34A4B22046FFF7D3FF50B103212046E6
:10597000FEF7D6FD032804D12046BDE81040FEF70F
:10598000D7BD002010BD0B460146184601F020BAD5
:10599000FEF785BB08B5FEF797FE0000184B1A68A6
:1059A000D1075CBF01221A60164B1A68D2075CBF90
:1059B00001221A60144B1A68D0075CBF01221A60DA
:1059C000124B1A68D1075CBF01221A60104B1A688B
:1059D000D2075CBF01221A600E4B1A68D0075CBF69
:1059E00001221A600C4B1A68D1075CBF01221A60B1
:1059F0000A4B1A68D2075CBF01221A60704700BFC9
:105A00006CE7032068E7032064E7032060E70320D6
:105A10005CE7032058E7032054E7032050E7032006
:105A2000244B1A68D0075CBF01221A60224B1A6807
:105A3000D1075CBF01221A60204B1A68D2075CBFF5
:105A400001221A601E4B1A68D0075CBF01221A603F
:105A50001C4B1A68D1075CBF01221A601A4B1A68E6
:105A6000D2075CBF01221A60184B1A68D0075CBFCE
:105A700001221A60164B1A68D1075CBF01221A6016
:105A8000144B1A68D2075CBF01221A60124B1A68C5
:105A9000D0075CBF01221A60104B1A68D1075CBFA7
:105AA00001221A600E4B1A68D2075CBF01221A60ED
:105AB000704700BF9CE7032098E7032094E703208A
:105AC00090E703208CE7032088E7032084E7032086
:105AD00080E703207CE7032078E7032074E70320B6
:105AE00070E70320244B1A68D0075CBF01221A60BC
:105AF000224B1A68D1075CBF01221A60204B1A683A
:105B0000D2075CBF01221A601E4B1A68D0075CBF27
:105B100001221A601C4B1A68D1075CBF01221A606F
:105B20001A4B1A68D2075CBF01221A60184B1A6818
:105B3000D0075CBF01221A60164B1A68D1075CBF00
:105B400001221A60144B1A68D2075CBF01221A6046
:105B5000124B1A68D0075CBF01221A60104B1A68FA
:105B6000D1075CBF01221A600E4B1A68D2075CBFD6
:105B700001221A60704700BFCCE70320C8E703206A
:105B8000C4E70320C0E70320BCE70320B8E70320F5
:105B9000B4E70320B0E70320ACE70320A8E7032025
:105BA000A4E70320A0E70320184B1A68D1075CBFC5
:105BB00001221A60164B1A68D2075CBF01221A60D4
:105BC000144B1A68D0075CBF01221A60124B1A6886
:105BD000D1075CBF01221A60104B1A68D2075CBF64
:105BE00001221A600E4B1A68D0075CBF01221A60AE
:105BF0000C4B1A68D1075CBF01221A600A4B1A6865
:105C0000D2075CBF01221A60704700BFECE7032097
:105C1000E8E70320E4E70320E0E70320DCE70320D4
:105C2000D8E70320D4E70320D0E703202DE9F04391
:105C30002DED028B8BB055EC104B00F081F83A4BF8
:105C4000B0EE408AF0EE608A93F90060731C0DD0CC
:105C500022462B462046294600F0D4FE30B90022C9
:105C600000232046294600F0C3FE40B1B0EE480AAA
:105C7000F0EE680A0BB0BDEC028BBDE8F0832B4B55
:105C80000890CDE90245CDE904450193DEB9284FDE
:105C90004FF060462046294600220023CDE90667E2
:105CA00000F07EFE002837D002230093684600F003
:105CB0004BFAC8B1089BE3B99DED060B0BB0BDECE8
:105CC000028BBDE8F083DFF870904FF000082046AB
:105CD000294600220023CDE9068900F061FE68B163
:105CE00002239E420093E1D1FEF7FEFC22230360D3
:105CF000E0E7FEF7F9FC089B0360DDE70123022ED5
:105D000000930BD1FEF7F0FC21230360094800F05B
:105D10001FFA8DED060BCDE701230093684600F0D6
:105D200013FA0028F2D1EDE758E30320AC710D001F
:105D3000FFFFEFC7B0710D000000F0FF0000000092
:105D40002DE9F04F51EC100BB1F5801F85B00B46DB
:105D500059DA10EE102A21F00044224300F0F880B6
:105D60000029C0F280810022DD4BDE4C00F0B0FB48
:105D70000B46A3426FF035024ADCC3F3130505F569
:105D8000152404F6647404F4801686F07F541B1501
:105D900084F44014A3F2FF3344EA05019C18002266
:105DA000D14B00F0E1F9AB1CC3F31303022B04EB5E
:105DB000165482468B464FF0000232DC002300F07E
:105DC000EFFD002800F0CF80002C00F05881204625
:105DD00000F018FBACA3D3E9002306460F4600F001
:105DE00077FBABA3D3E9002304460D463046394682
:105DF00000F06EFB02460B462046294600F0B6F93D
:105E000041EC100B0AE0B74CA3424FF00002B4DDA6
:105E100002460B4600F0AAF941EC100B05B0BDE8B4
:105E2000F08F4FF0804300F0A1F902460B46504638
:105E3000594600F077FC064620460F4600F0E2FA8D
:105E40003246CDE900013B4630463946CDE902678E
:105E500000F03EFB02460B468046894600F038FBC8
:105E60008DA3D3E9002306460F4600F031FB8CA337
:105E7000D3E9002300F07AF932463B4600F028FBD4
:105E800089A3D3E9002300F071F932463B4600F0C4
:105E90001FFB87A3D3E9002300F068F942464B4675
:105EA00000F016FB84A3D3E90023804689463046E0
:105EB000394600F00DFB82A3D3E9002300F056F928
:105EC00032463B4600F004FB7FA3D3E9002300F0F9
:105ED0004DF932463B4600F0FBFA0B460246494676
:105EE000404600F043F9A5F5C223C5F5D725A3F236
:105EF0007A4351351D43002D804689465CDD0022E2
:105F00007A4B5046594600F0E3FA52465B4600F0A1
:105F1000DFFA06460F46002C6ED132463B4640461D
:105F2000494600F023F9DDE9022300F0D1FA0246E8
:105F30000B463046394600F017F902460B465046EC
:105F4000594600F011F941EC100B05B0BDE8F08F97
:105F5000002200230020664900F0E4FB41EC100B16
:105F600005B0BDE8F08F5AA3D3E900235046594647
:105F700000F0AEFA02460B4600205C4900F0F4F84F
:105F8000524606460F465B465046594600F0A0FA78
:105F900002460B463046394600F09AFA06460F464E
:105FA000002C40F0A78002460B465046594600F0B0
:105FB000DBF841EC100B31E7002C00F0AF8032A38E
:105FC000D3E90023DDE9000100F082FA42464B46A6
:105FD00004460D465046594600F0C6F8DDE9022356
:105FE00000F076FA2AA3D3E9002306460F46DDE93E
:105FF000000100F06DFA21E023A3D3E90023DDE9DD
:10600000000100F065FA32463B4604460D46404624
:10601000494600F0ABF8DDE9022300F059FA1CA371
:10602000D3E9002380468946DDE9000100F050FAFB
:1060300002460B464046494600F098F802460B4699
:106040003046394600F090F852465B4600F08CF836
:1060500002460B462046294600F086F841EC100B1C
:1060600005B0BDE8F08F10EE102A0B4600F07CF86A
:106070000022002300F056FB41EC100BCEE69FED12
:10608000160BCBE6AFF300800000E0FE422EE63FA9
:10609000763C7935EF39EA3D44523EDF12F1C23F9A
:1060A000DE03CB966446C73F599322942449D23FDE
:1060B000935555555555E53F9FC678D0099AC33F2E
:1060C000AF788E1DC571CC3F04FA97999999D93F45
:1060D000555555555555D53F0000000000000000AE
:1060E00000005043FFFFEF7F0000F03F0000E03F63
:1060F000000050C3204600F085F90FA3D3E9002328
:106100008046894600F0E4F90DA3D3E90023044654
:106110000D464046494600F0DBF98FE702460B4644
:106120005046594600F020F8DDE9022300F0D0F98E
:1061300003E700BFAFF300800000E0FE422EE63F21
:10614000763C7935EF39EA3D0020704700000000C9
:106150009FED010B704700BF000000000000F87FBA
:1061600081F0004102E000BF83F0004330B54FEA08
:1061700041044FEA430594EA050F08BF90EA020F75
:106180001FBF54EA000C55EA020C7FEA645C7FEA08
:10619000655C00F0E2804FEA5454D4EB5555B8BF2B
:1061A0006D420CDD2C4480EA020281EA030382EA9C
:1061B000000083EA010180EA020281EA0303362D2E
:1061C00088BF30BD11F0004F4FEA01314FF4801C01
:1061D0004CEA113102D0404261EB410113F0004F13
:1061E0004FEA03334CEA133302D0524263EB4303CA
:1061F00094EA050F00F0A780A4F10104D5F1200E68
:106200000DDB02FA0EFC22FA05F2801841F10001C2
:1062100003FA0EF2801843FA05F359410EE0A5F196
:1062200020050EF1200E012A03FA0EFC28BF4CF0C7
:10623000020C43FA05F3C01851EBE37101F000457D
:1062400007D54FF0000EDCF1000C7EEB00006EEB8A
:106250000101B1F5801F1BD3B1F5001F0CD3490814
:106260005FEA30004FEA3C0C04F101044FEA44526B
:1062700012F5800F80F09A80BCF1004F08BF5FEAF2
:10628000500C50F1000041EB045141EA050130BDD2
:106290005FEA4C0C404141EB010111F4801FA4F175
:1062A0000104E9D191F0000F04BF01460020B1FACA
:1062B00081F308BF2033A3F10B03B3F120020CDA02
:1062C0000C3208DD02F1140CC2F10C0201FA0CF0E0
:1062D00021FA02F10CE002F11402D8BFC2F1200C45
:1062E00001FA02F120FA0CFCDCBF41EA0C019040FB
:1062F000E41AA2BF01EB0451294330BD6FEA040444
:106300001F3C1CDA0C340EDC04F11404C4F120022E
:1063100020FA04F001FA02F340EA030021FA04F340
:1063200045EA030130BDC4F10C04C4F1200220FA97
:1063300002F001FA04F340EA0300294630BD21FAD5
:1063400004F0294630BD94F0000F83F4801306BF9B
:1063500081F480110134013D4EE77FEA645C18BF8F
:106360007FEA655C29D094EA050F08BF90EA020F26
:1063700005D054EA000C04BF1946104630BD91EA1E
:10638000030F1EBF0021002030BD5FEA545C05D121
:106390004000494128BF41F0004130BD14F5800460
:1063A0003CBF01F5801130BD01F0004545F0FE41D4
:1063B00041F470014FF0000030BD7FEA645C1ABF09
:1063C000194610467FEA655C1CBF0B46024650EA40
:1063D000013406BF52EA033591EA030F41F400216C
:1063E00030BD00BF90F0000F04BF0021704730B5F2
:1063F0004FF4806404F132044FF000054FF00001C7
:1064000050E700BF90F0000F04BF0021704730B587
:106410004FF4806404F1320410F0004548BF40425C
:106420004FF000013EE700BF42004FEAE2014FEAB1
:1064300031014FEA02701FBF12F07F4393F07F4F8C
:1064400081F06051704792F0000F14BF93F07F4FBE
:10645000704730B54FF4607401F0004521F0004101
:1064600020E700BF50EA010208BF704730B54FF087
:1064700000050AE050EA010208BF704730B511F08C
:10648000004502D5404261EB41014FF4806404F1C4
:1064900032045FEA915C3FF4DCAE4FF003025FEA46
:1064A000DC0C18BF03325FEADC0C18BF033202EBCE
:1064B000DC02C2F1200300FA03FC20FA02F001FA28
:1064C00003FE40EA0E0021FA02F11444C1E600BFC7
:1064D00070B54FF0FF0C4CF4E06C1CEA11541DBF7A
:1064E0001CEA135594EA0C0F95EA0C0F00F0DEF845
:1064F0002C4481EA030621EA4C5123EA4C5350EA2A
:10650000013518BF52EA033541F4801143F480137A
:1065100038D0A0FB02CE4FF00005E1FB02E506F00B
:106520000042E0FB03E54FF00006E1FB03569CF060
:10653000000F18BF4EF0010EA4F1FF04B6F5007F66
:1065400064F5407404D25FEA4E0E6D4146EB0606D8
:1065500042EAC62141EA55514FEAC52040EA5E5061
:106560004FEACE2EB4F1FD0C88BFBCF5E06F1ED80B
:10657000BEF1004F08BF5FEA500E50F1000041EB42
:10658000045170BD06F0004646EA010140EA0200EF
:1065900081EA0301B4EB5C04C2BFD4EB0C0541EA11
:1065A000045170BD41F480114FF0000E013C00F326
:1065B000AB8014F1360FDEBF002001F0004170BD4A
:1065C000C4F10004203C35DA0C341BDC04F1140463
:1065D000C4F1200500FA05F320FA04F001FA05F2EF
:1065E00040EA020001F0004221F0004110EBD370BC
:1065F00021FA04F642EB06015EEA430E08BF20EAE8
:10660000D37070BDC4F10C04C4F1200500FA04F38A
:1066100020FA05F001FA04F240EA020001F000411C
:1066200010EBD37041F100015EEA430E08BF20EA8F
:10663000D37070BDC4F1200500FA05F24EEA020ED7
:1066400020FA04F301FA05F243EA020321FA04F006
:1066500001F0004121FA04F220EA020000EBD370BD
:106660005EEA430E08BF20EAD37070BD94F0000FBD
:106670000FD101F00046400041EB010111F4801FF1
:1066800008BF013CF7D041EA060195F0000F18BFA2
:10669000704703F00046520043EB030313F4801FDE
:1066A00008BF013DF7D043EA0603704794EA0C0F98
:1066B0000CEA135518BF95EA0C0F0CD050EA4106AE
:1066C00018BF52EA4306D1D181EA030101F000412B
:1066D0004FF0000070BD50EA410606BF1046194653
:1066E00052EA430619D094EA0C0F02D150EA01365F
:1066F00013D195EA0C0F05D152EA03361CBF1046A0
:1067000019460AD181EA030101F0004141F0FE413E
:1067100041F470014FF0000070BD41F0FE4141F4C2
:10672000780170BD70B54FF0FF0C4CF4E06C1CEAC2
:1067300011541DBF1CEA135594EA0C0F95EA0C0F77
:1067400000F0A7F8A4EB050481EA030E52EA033532
:106750004FEA013100F088804FEA03334FF0805553
:1067600045EA131343EA12634FEA022245EA111580
:1067700045EA10654FEA00260EF000419D4208BF31
:10678000964244F1FD0404F5407402D25B084FEADE
:106790003202B61A65EB03055B084FEA32024FF48A
:1067A00080104FF4002CB6EB020E75EB030E22BFE7
:1067B000B61A754640EA0C005B084FEA3202B6EBA7
:1067C000020E75EB030E22BFB61A754640EA5C0056
:1067D0005B084FEA3202B6EB020E75EB030E22BFE6
:1067E000B61A754640EA9C005B084FEA3202B6EBE7
:1067F000020E75EB030E22BFB61A754640EADC00A6
:1068000055EA060E18D04FEA051545EA16754FEA07
:1068100006164FEAC30343EA52734FEAC2025FEA25
:106820001C1CC0D111F4801F0BD141EA00014FF0B4
:1068300000004FF0004CB6E711F4801F04BF014385
:106840000020B4F1FD0C88BFBCF5E06F3FF6AFAEA1
:10685000B5EB030C04BFB6EB020C5FEA500C50F131
:10686000000041EB045170BD0EF0004E4EEA1131B4
:1068700014EB5C04C2BFD4EB0C0541EA045170BDBB
:1068800041F480114FF0000E013C90E645EA060EFF
:106890008DE60CEA135594EA0C0F08BF95EA0C0F2D
:1068A0003FF43BAF94EA0C0F0AD150EA01347FF475
:1068B00034AF95EA0C0F7FF425AF104619462CE74C
:1068C00095EA0C0F06D152EA03353FF4FDAE1046AF
:1068D000194622E750EA410618BF52EA43067FF400
:1068E000C5AE50EA41047FF40DAF52EA43057FF490
:1068F000EBAE12E74FF0FF3C06E000BF4FF0010C9B
:1069000002E000BF4FF0010C4DF804CD4FEA410CFE
:106910007FEA6C5C4FEA430C18BF7FEA6C5C1BD0CB
:1069200001B050EA410C0CBF52EA430C91EA030F4C
:1069300002BF90EA020F0020704710F1000F91EAA9
:10694000030F58BF994208BF90422CBFD8176FEA77
:10695000E37040F0010070474FEA410C7FEA6C5C45
:1069600002D150EA013C07D14FEA430C7FEA6C5C4C
:10697000D6D152EA033CD3D05DF8040B704700BF78
:106980008446104662468C461946634600E000BFC6
:1069900001B5FFF7B7FF002848BF10F1000F01BD98
:1069A0004DF808EDFFF7F4FF0CBF012000205DF863
:1069B00008FB00BF4DF808EDFFF7EAFF34BF0120E8
:1069C00000205DF808FB00BF4DF808EDFFF7E0FF81
:1069D00094BF012000205DF808FB00BF4DF808EDD2
:1069E000FFF7CEFF94BF012000205DF808FB00BF39
:1069F0004DF808EDFFF7C4FF34BF012000205DF81B
:106A000008FB00BF4FEA410C7FEA6C5C02D150EA00
:106A1000013C0AD14FEA430C7FEA6C5C02D152EA96
:106A2000033C02D14FF0000070474FF00100704767
:106A30004A0011D212F5001211D20DD56FF47873FD
:106A4000B3EB62520ED44FEAC12343F0004343EA52
:106A5000505323FA02F070474FF00000704750EA9D
:106A6000013002D14FF0FF3070474FF00000704707
:106A700053B94AB9002908BF00281CBF4FF0FF31A5
:106A80004FF0FF3000F0A2B9ADF1080C6DE904CE73
:106A900000F02AF8DDF804E0DDE9022304B07047D5
:106AA000D0B500220E4B06460F46FFF711FDFFF74B
:106AB000BFFF0446FFF796FC00220A4BFFF708FDD4
:106AC00002460B4630463946FFF74EFBFFF7B0FF54
:106AD0002346002242EA000210461946D0BD00BFFC
:106AE0000000F03D0000F0412DE9F0478C460E46D5
:106AF0000446089D002B50D18A4217466CD9B2FA41
:106B000082FEBEF1000F0BD0CEF1200420FA04F477
:106B100001FA0EF644EA060C02FA0EF700FA0EF439
:106B20004FEA1749220CBCFBF9F01FFA87F809FB62
:106B300010C642EA064600FB08F3B34209D9F6192B
:106B400000F1FF3280F02281B34240F21F8102380F
:106B50003E44F61AA2B2B6FBF9F309FB136642EA09
:106B6000064403FB08F8A04509D9E41903F1FF32F4
:106B700080F00A81A04540F20781023B3C44C8EB0B
:106B8000040443EA00400021002D62D024FA0EF4F0
:106B900000232C606B60BDE8F0878B4207D9002D85
:106BA00055D0002185E841000846BDE8F087B3FADA
:106BB00083F1002940F09080B34202D3824200F278
:106BC000F880841A66EB03060120B446002D40D0FD
:106BD00085E81010BDE8F08712B90127B7FBF2F77E
:106BE000B7FA87FEBEF1000F35D1F31B4FEA174805
:106BF0001FFA87FC0121B3FBF8F0220C08FB1036CA
:106C000042EA06460CFB00F3B34207D9F61900F13D
:106C1000FF3202D2B34200F2CE801046F61AA2B280
:106C2000B6FBF8F308FB136642EA06440CFB03FCD0
:106C3000A44507D9E41903F1FF3202D2A44500F2BA
:106C4000B5801346CCEB040443EA00409CE7294698
:106C50002846BDE8F087CEF1200106FA0EF307FAC8
:106C60000EF720FA01F94FEA1748CE4049EA030926
:106C7000B6FBF8FA4FEA194408FB1A661FFA87FCBC
:106C800044EA06430AFB0CF29A4200FA0EF40AD9CF
:106C9000DB190AF1FF3180F087809A4240F284804C
:106CA000AAF1020A3B449B1A1FFA89F9B3FBF8F1D7
:106CB00008FB113349EA034301FB0CF69E4207D956
:106CC000DB1901F1FF326BD29E4269D902393B4494
:106CD0009B1B41EA0A418EE7C1F1200E22FA0EF415
:106CE0008B40234320FA0EF706FA01F44FEA134CC7
:106CF00026FA0EF63C43B6FBFCF9270C0CFB196692
:106D00001FFA83F847EA064609FB08F7B74202FA7A
:106D100001F200FA01FA08D9F61809F1FF3041D260
:106D2000B7423FD9A9F102091E44F61BA0B2B6FB37
:106D3000FCF40CFB146640EA064704FB08F8B8456F
:106D400007D9FF1804F1FF3028D2B84526D9023CF4
:106D50001F4444EA0940C8EB0707A0FB02894F45DE
:106D600044464E4614D329D065B3BAEB040367EB0F
:106D7000060707FA0EFECB40CF404EEA030385E834
:106D800088000021BDE8F0871346F8E61046E0E6EB
:106D9000B8EB020469EB03060138E5E70446D8E7DF
:106DA000114695E78146C0E78A467CE7023B3C44B2
:106DB00048E708460AE702383E442FE7C245E7D3D2
:106DC0003E46D1E72946BDE8F08700BF704700BFC7
:106DD00010B5054C13462CB10A4601460220AFF30C
:106DE000008010BD204610BD0000000010B5431EFD
:106DF0000A44914204D011F8014B03F8014FF8E71F
:106E000010BD02440346934202D003F8011BFAE787
:106E10007047000038B5124B1C68A36B0546D3B908
:106E20001820FDF739FC43F20E33A06303804AF6C5
:106E3000CD33438041F2342383804EF26D63C380AF
:106E40004DF6EC630381052343810B2383810122EB
:106E50000023C0E90423A36B00221D615A6138BDE1
:106E6000BCE30320024B0146186800F003B800BFE2
:106E7000BCE3032070B5064608460C4600F00DF84A
:106E8000451C29463046FDF727FC064618B12A4620
:106E90002146FFF7ABFF304670BD034613F8012BC8
:106EA000002AFBD1181A01387047000021400D005C
:106EB0005D400D0089400D008D400D000000000078
:106EC00054656D706572617475726520696E2043DA
:106ED000656C736975733A200054656D70657261F5
:106EE0007475726520696E2046616872656E6865AA
:106EF00069743A200063656C736975730066616834
:106F000072656E6865697400000000000000000092
:106F10000B470D0015470D001F470D0029470D00B9
:106F200033470D003F470D004B470D0057470D00FD
:106F30005F470D0069470D0073470D00000000001A
:106F400000000000B3480D00A9480D009F480D0047
:106F500055480D0093480D0087480D007B480D00F3
:106F600073480D0069480D005F480D0073470D0020
:106F700000000000000000002F490D0025490D0011
:106F80001B490D0011490D0005490D00F9480D0080
:106F9000ED480D00E5480D00DB480D00D1480D001F
:106FA00073470D0000000000000000005D4A0D0066
:106FB000A74A0D007F4A0D005F4A0D00874A0D0069
:106FC0008F4A0D00974A0D009F4A0D0000000000F7
:106FD00000000000F34A0D00434B0D00514B0D0023
:106FE000B5530D002F4B0D00F54A0D000B4B0D0056
:106FF0003D4B0D00214B0D00EF4A0D00000000003D
:1070000000000000114C0D00014C0D00034C0D0060
:107010000000000000000000E54C0D00EB4C0D00EE
:107020002F4D0D00F94C0D00E74C0D005A00252B9B
:107030003033643A253032750025592D256D2D25C4
:10704000645425483A254D3A2553257A00617363E7
:1070500074696D6500626175640053657269616C85
:107060000053657269616C310074797065007061FC
:1070700072616D00636D6400696400686E64007322
:1070800074726D0066696C74006C766C0061646487
:1070900048616E646C65720072656D6F76654861FB
:1070A0006E646C657200656E756D48616E646C65CA
:1070B0007273004A534F4E53747265616D4C6F6723
:1070C00048616E646C65720061707000253031300B
:1070D0007520005D20002564002C200028293A201E
:1070E00000205B00636F6465203D2000256900641B
:1070F000657461696C73203D20000D0A0066006CA8
:107100006E00666E00636F64650064657461696C2F
:10711000006E6F6E6500747261636500696E666F04
:10712000007761726E006572726F720070616E69D5
:107130006300616C6C0000000000000000000000B3
:10714000A1540D00F1540D00FF540D00B5530D0076
:10715000B5540D00D7540D00C3540D00EB540D0071
:10716000A3540D00A7540D00000000000000000013
:1071700031560D0033560D000000000000000000E5
:10718000CD560D00C3560D00B9560D00AF560D007B
:10719000A3560D0097560D008B560D0083560D001B
:1071A00079560D006F560D0073470D006C6F670028
:1071B00000000000000000000000000000000000CF
:1071C00000000000000000000000000000000000BF
:1071D00000000000000000000000000000000000AF
:1071E000000000000000000000000000000000009F
:1071F000000000000000000000000000000000008F
:10720000000000000000000000000000000000007E
:10721000000000004300000001430D0041480D0044
:10722000BD480D00E5490D006D530D0091530D0053
:10723000A5530D0091540D0019560D00D9560D009F
:10724000CD580D009D590D00215A0D00E55A0D0035
:10725000A95B0D000000000000000000000000001D
:0872600088F8FF7F0100000027
:107268000F0000004D700D0001000000000000003C
:10727800B4710D00D4710D00F4710D000000000010
:1072880000000000000000000000000014720D0063
:1072980000000000000000000000000000000000E6
:1072A80000000000000000000000000000000000D6
:1072B80000000000000000000000000000000000C6
:1072C8000000000000000000000000005CE3032054
:1072D800FFFFFFFF00000102030405060708090A73
:1072E8000B0C0D0E0F101112131415161718191A6E
:0872F8001B1C1D1E1F202800B5
:047300007856341275
:04000003D0004020C9
:00000001FF
