:02000004080AE8
:1000000000000A0880140A08000006000600050126
:0800100004027E05000000005F
:0400180004110A08BD
:10001C0009480A4908B5884205D0094A824202D0EB
:10002C00121A01F025F80748074A0021121A01F0AC
:10003C002AF8064808BD00BF00000020E4130A0897
:10004C007400002074000020000600200006002030
:10005C0070B500F0AFFC074B074C1E46E41AA40821
:10006C000025A54204D056F8253098470135F8E70D
:10007C0070BD00BFA0130A08D4130A0800F012B810
:10008C0008B500F03BF8BDE8084000F055BC00F0A6
:10009C00D5B90078B0FA80F040097047012303709D
:1000AC007047000008B5084B0121188800F058FE75
:1000BC00064B0121188800F053FE054B01211888CE
:1000CC00BDE8084000F04CBE0000002004000020F9
:1000DC000800002038B50C4685B20121284600F0F6
:1000EC0050FE204600F0A6FC2846002100F049FEF8
:1000FC002046BDE8384000F09DBC000008B50C4B14
:10010C004FF4FA711868FFF7E5FF0A4B4FF4FA71D8
:10011C001868FFF7DFFF084B4FF4FA711868FFF708
:10012C00D9FFBDE808404FF47A7000F083BC00BFE3
:10013C0000000020040000200800002000F0DAB8C5
:10014C0008B5024B1B689B6C019308BDC0010608E7
:10015C0008B5024B1B681B68019308BDD801060843
:10016C0008B5024B1B681B69019308BDD801060832
:10017C0008B5024B1B685B69019308BDD8010608E2
:10018C0008B5024B1B689B69019308BDD801060892
:10019C0008B5024B1B68DB69019308BDD801060842
:1001AC0008B5024B1B681B6A019308BDD8010608F1
:1001BC0008B5024B1B681B6E019308BDAC01060809
:1001CC0008B5024B1B685B6E019308BDAC010608B9
:1001DC0008B5024B1B689B6E019308BDAC01060869
:1001EC0008B5024B1B68DB6E019308BDAC01060819
:1001FC0008B5024B1B681B6F019308BDAC010608C8
:10020C0008B5024B1B685B6F019308BDAC01060877
:10021C0008B5034B1B68D3F88030019308BD000070
:10022C00AC01060808B5024B1B689B69019308BD1D
:10023C00C401060808B5024B1B685B6A019308BD34
:10024C00C401060808B5024B1B689B6A019308BDE4
:10025C00C401060808B5024B1B68DB6A019308BD94
:10026C00C401060808B5024B1B681B6B019308BD43
:10027C00C401060808B5024B1B685B6B019308BDF3
:10028C00C401060808B5024B1B689B6B019308BDA3
:10029C00C401060808B5024B1B681B6C019308BD12
:1002AC00C401060808B5024B1B681B6B019308BD03
:1002BC00D001060808B5024B1B685B68019308BDAA
:1002CC009C01060808B5024B1B685B69019308BDCD
:1002DC009C01060808B5024B1B68DB69019308BD3D
:1002EC00B401060808B5024B1B681B6A019308BDD4
:1002FC00B401060808B5024B1B681B68019308BDC6
:10030C00B001060808B5024B1B689B68019308BD39
:10031C00B001060808B5024B1B68DB68019308BDE9
:10032C00B001060808B5024B1B681B69019308BD98
:10033C00B001060808B5024B1B68DB6B019308BDC6
:10034C00CC01060808B5024B1B685B68019308BD1D
:10035C00C801060808B5024B1B689B68019308BDD1
:10036C00C801060808B5024B1B68DB68019308BD81
:10037C00C801060808B5024B1B681B69019308BD30
:10038C00C801060808B5024B1B685B69019308BDE0
:10039C00C801060808B5024B1B689B69019308BD90
:1003AC00C801060808B5024B1B68DB69019308BD40
:1003BC00C801060808B5024B1B681B6A019308BDEF
:1003CC00C801060808B5024B1B681B6B019308BDDE
:1003DC00C801060808B5024B1B685B6B019308BD8E
:1003EC00C801060808B5024B1B685B68019308BD81
:1003FC00A401060808B5024B1B685B69019308BD94
:10040C00A401060808B5034B1B68D3F89030019380
:10041C0008BD0000A401060808B5034B1B68D3F8FF
:10042C009C30019308BD0000A401060808B5024BDE
:10043C001B681B68019308BDA001060808B5024B98
:10044C001B685B68019308BDA001060810B58368A2
:10045C00044613B1032201469847204610BD0023E1
:10046C001A464068FFF76EBF002202214068FFF772
:10047C0079BF002211464068FFF76CBF002211467D
:10048C004068FFF777BF00231A4619464068FFF70C
:10049C0079BF00231A4619464068FFF77BBF00223C
:1004AC0081F001014068FFF77DBF00224068FFF733
:1004BC0089BF002211464068FFF78CBF002211460D
:1004CC004068FFF777BF000070B516468EB0044643
:1004DC0008A800F0BDF91122002103A800F0D3FDFB
:1004EC00304600F001FE00250A4B009581B25B6896
:1004FC0003AA3046FFF724FE20B12946204600F01F
:10050C00C7F903E003A9204600F0B0F920460EB06D
:10051C0070BD00BF80000020024B034A1A6000220D
:10052C005A6070477800002020110A0800221146FA
:10053C004068FFF71FBFF0B5164689B011220F4671
:10054C000446002103A800F09EFD304600F0CCFDCF
:10055C000025009581B27B6803AA3046FFF7F0FDB9
:10056C0020B12946204600F093F903E003A9204668
:10057C0000F07CF9204609B0F0BD0022114640681D
:10058C00FFF718BF002211464068FFF723BF002277
:10059C004068FFF717BF002281F001014068FFF7A8
:1005AC0001BF00231A4619464068FFF7F3BE00232B
:1005BC001A4619464068FFF7E5BE0022114640680E
:1005CC00FFF7C8BE002202214068FFF7CBBE002314
:1005DC001A464068FFF7B6BE024B04225A60024A24
:1005EC001A6070478000002054110A087047F8B553
:1005FC00064615460C468F18BC4206D0336814F8D4
:10060C00011B9B6830469847F6E72846F8BD002248
:10061C00007CFFF7CDBD0021007CFFF7D1BD002190
:10062C00007CFFF7D5BD0021007CFFF7D9BD002170
:10063C00007CFFF7DDBD10B50446142100F0BFFBB4
:10064C00204610BD10B5044608464FF47A73A360DB
:10065C00044B0021207461602360FFF7D9FD204614
:10066C0010BD00BF88110A080021007CFFF7C8BD2F
:10067C0041747047704708B50021007CFFF780FD7E
:10068C0030EA200028BF4FF0FF3008BD08B501212B
:10069C00007CFFF775FD30EA200028BF4FF0FF30DB
:1006AC0008BD08B5007CFFF763FD20EAE07008BDCB
:1006BC0008B5007CFFF754FD20EAE07008BD007C13
:1006CC00FFF76EBD10B50446142100F078FB2046F0
:1006DC0010BD38B50446007C0D46FFF749FD0028D7
:1006EC0001DC607C28B12946207CFFF751FD20EA13
:1006FC00E07038BD10B50446002363604FF47A7384
:10070C00A360054B084623600123217463741146D2
:10071C00FFF71EFD204610BDB0110A0810B50446A7
:10072C001422002100F0AFFC054B20466360054B02
:10073C00E36040F2011323818123238210BD00BFAB
:10074C000D0100208C00002030B50E4D87B001A8A3
:10075C00FFF7E4FF296811F0010410D12846FFF7D8
:10076C0098FC60B101AA21460748FFF7C3FF284651
:10077C00FFF794FC054A0649034800F01BFB0248AE
:10078C0007B030BD8800002010020020740000204B
:10079C0081060A0810B504461422002100F073FCEF
:1007AC00054B20466360054BE36040F20113238147
:1007BC008123238210BD00BFC0020020280200202C
:1007CC0010B50E4C86B001A8FFF7E4FF2368DB07D9
:1007DC0010D42046FFF75DFC60B101AA0121084846
:1007EC00FFF788FF2046FFF759FC064A06490448E4
:1007FC0000F0E0FA024806B010BD00BF2402002051
:10080C00AC0200207400002081060A08704710B565
:10081C000446182100F0D3FA204610BDF8B50F4657
:10082C0000F10806051D002416F8011D0A223846A1
:10083C0000F069F9AE42044407D0002CF4D02E210C
:10084C00384600F033F90444EEE72046F8BD0000CA
:10085C0010B50446044B112240F8043B002100F073
:10086C0012FC204610BD00BFE0110A080346074ADF
:10087C0010B543F8042B01F1100251F8044B9142CE
:10088C0043F8044BF9D10A781A7010BDE0110A082C
:10089C00024A41600260042202757047E0110A08A6
:1008AC0010B59DF8084044EA032343EA024242EAA9
:1008BC00016104234160037510BD000037B5044D80
:1008CC0005609DF818500095FFF7EAFF03B030BDA6
:1008DC00E0110A0808B5144B33B1FFF735FF036874
:1008EC001B699847002816DC104B33B100F068F9EF
:1008FC0003681B699847002810DC0D4B0BB1AFF354
:10090C0000800C4B7BB1FFF75BFF03681B699847BA
:10091C00002806DC08BDAFF30080E5E7AFF30080EC
:10092C00EBE7AFF3008008BD000000000000000002
:10093C00000000000000000008B5FFF7CBFFFFF738
:10094C00C1FC014B186008BD3C0500200248034A5D
:10095C000349121A00F08CBB0040024004400240D4
:10096C00E0130A0807B5002300931A466FF07701CD
:10097C00FFF752FD03B05DF804FB000007B5438898
:10098C000A2B08D0502B09D1094B1B683BB103B083
:10099C005DF804EB1847FFF7E5FF06E00023009332
:1009AC001A466FF07701FFF737FD03B05DF804FBD3
:1009BC00C403002038B5104C104D2368AB42104BCB
:1009CC000CBF012200221A7002D0FFF7BFFF256076
:1009DC00FFF770FC044600F05FFB0A4B13B1204696
:1009EC00AFF3008000210748FFF7A4FCBDE83840B6
:1009FC0000210548FFF706BD004002401E1C279A47
:100A0C00C80300200000000089090A0810B504463C
:100A1C00FFF71CFD204610BD034800238360034AEA
:100A2C00034900F0C7B900BFCC03002074000020BC
:100A3C00190A0A080021FFF7DDBC0000024B1A68F6
:100A4C00024B1A60704700BF0C000020DC03002032
:100A5C00014A024B1A6070478B120A08E00300200F
:100A6C00F8B506460D468F180024BD420CD03368ED
:100A7C0015F8011B9B6830469847002801DB04449D
:100A8C00F3E7002C08BF04462046F8BD70B50546B8
:100A9C000C46084649B100F027FB2B68024621465C
:100AAC002846BDE87040DB68184770BD03689B683A
:100ABC001847012A98BF0A2230B50B468BB000218B
:100ACC008DF824100DF12304B3FBF2F505FB123362
:100ADC00DBB2092B94BF30333733DBB2214604F839
:100AEC0001392B46002DEFD1FFF7D0FF0BB030BDF5
:100AFC0010B422B90368C9B29B6810BC1847D2B2B3
:100B0C0010BCFFF7D6BFFFF7F3BF704741747047B7
:100B1C0008B5007CFFF7BEFB20EAE07008BD08B505
:100B2C00007CFFF78FFB20EAE07008BD08B5007C65
:100B3C00FFF798FB30EA200028BF4FF0FF3008BDCC
:100B4C0008B5007CFFF786FB30EA200028BF4FF089
:100B5C00FF3008BD007CFFF78DBB10B50446142197
:100B6C0000F02DF9204610BD70B5457C04460E46AC
:100B7C0025B9007CFFF78EFB002805DD3146207C73
:100B8C00BDE87040FFF756BB284670BD10B5044653
:100B9C0008461146002262604FF47A72A260054A40
:100BAC0020742260012262741A46FFF73BFB204638
:100BBC0010BD00BF04130A08007CFFF763BB0000E4
:100BCC0038B50C4D296811F0010411D12846FFF7F6
:100BDC0060FA68B1084A2146084B0948FFF7D6FF6E
:100BEC002846FFF75BFA074A0749054800F0E2F888
:100BFC00034838BD7C04002080040020F80300204A
:100C0C00E403002074000020170B0A084FF6FF7253
:100C1C00034B0020187058809A80FFF7E3BB00BF8D
:100C2C0004050020704710B50446102100F0C7F8E9
:100C3C00204610BD70B504460E46074B00250360D8
:100C4C0040F80C5FFFF72EFB30462671FFF742FB96
:100C5C00A560204670BD00BF34130A080079FFF769
:100C6C0041BB000038B50B4D296811F001040FD1C0
:100C7C002846FFF70EFA58B121460748FFF7E2FC69
:100C8C002846FFF70BFA054A0549034800F092F88D
:100C9C00014838BD0C050020100500207400002010
:100CAC00F9050A0813B5084C00231A461946009397
:100CBC002046FFF703FE2046044A054902B0BDE872
:100CCC00104000F077B800BF24050020740000200D
:100CDC0019080A0870B50C4C0C4E0D4D002120461D
:100CEC00FFF7A8FF20460B4C3246294600F062F86D
:100CFC0001212046FFF79EFF324629462046BDE8DB
:100D0C00704000F057B800BF400500207400002070
:100D1C00310C0A085005002010B504460F48FFF7A7
:100D2C009DFF28B1A4F10D03022B01D8002010BDAA
:100D3C00FFF798FFFFF798FC08B1012CF6D9FFF7E5
:100D4C003FFFFFF739FF18B1A4F11203012BEDD9C6
:100D5C00172C8CBF0020012010BD00BF40050020C7
:100D6C00172838B504460D460AD8FF2908D0FFF7D6
:100D7C00D3FF28B129462046BDE83840FFF7C2BA58
:100D8C0038BD38B504460D46FFF7C4FAFF2810D01D
:100D9C00062804D84D2323FA00F0C30709D42046B3
:100DAC00FFF7BAFF28B129462046BDE83840FFF7C7
:100DBC00B9BA38BD0B460146184600F04BB9FFF7DF
:100DCC0066B90000184B1A68D1075CBF01221A6083
:100DDC00164B1A68D2075CBF01221A60144B1A68B2
:100DEC00D0075CBF01221A60124B1A68D1075CBF96
:100DFC0001221A60104B1A68D2075CBF01221A60DC
:100E0C000E4B1A68D0075CBF01221A600C4B1A6893
:100E1C00D1075CBF01221A600A4B1A68D2075CBF6B
:100E2C0001221A60704700BF7C0500207805002065
:100E3C0074050020700500206C050020680500205A
:100E4C006405002060050020244B1A68D0075CBFA5
:100E5C0001221A60224B1A68D1075CBF01221A606A
:100E6C00204B1A68D2075CBF01221A601E4B1A680D
:100E7C00D0075CBF01221A601C4B1A68D1075CBFFB
:100E8C0001221A601A4B1A68D2075CBF01221A6041
:100E9C00184B1A68D0075CBF01221A60164B1A68EF
:100EAC00D1075CBF01221A60144B1A68D2075CBFD1
:100EBC0001221A60124B1A68D0075CBF01221A601B
:100ECC00104B1A68D1075CBF01221A600E4B1A68CE
:100EDC00D2075CBF01221A60704700BFAC0500202E
:100EEC00A8050020A4050020A00500209C050020DA
:100EFC009805002094050020900500208C0500200A
:100F0C00880500208405002080050020244B1A68E9
:100F1C00D0075CBF01221A60224B1A68D1075CBF54
:100F2C0001221A60204B1A68D2075CBF01221A609A
:100F3C001E4B1A68D0075CBF01221A601C4B1A6842
:100F4C00D1075CBF01221A601A4B1A68D2075CBF2A
:100F5C0001221A60184B1A68D0075CBF01221A6074
:100F6C00164B1A68D1075CBF01221A60144B1A6821
:100F7C00D2075CBF01221A60124B1A68D0075CBF03
:100F8C0001221A60104B1A68D1075CBF01221A604B
:100F9C000E4B1A68D2075CBF01221A60704700BF63
:100FAC00DC050020D8050020D4050020D005002049
:100FBC00CC050020C8050020C4050020C005002079
:100FCC00BC050020B8050020B4050020B0050020A9
:100FDC00184B1A68D1075CBF01221A60164B1A68AD
:100FEC00D2075CBF01221A60144B1A68D0075CBF91
:100FFC0001221A60124B1A68D1075CBF01221A60D9
:10100C00104B1A68D2075CBF01221A600E4B1A688B
:10101C00D0075CBF01221A600C4B1A68D1075CBF69
:10102C0001221A600A4B1A68D2075CBF01221A60AF
:10103C00704700BFFC050020F8050020F4050020D7
:10104C00F0050020EC050020E8050020E405002058
:10105C00E005002010B5054C13462CB10A4601469C
:10106C000220AFF3008010BD204610BD0000000030
:10107C0010B5431E0A44914204D011F8014B03F8F9
:10108C00014FF8E710BD03460244934202D003F827
:10109C00011BFAE77047000038B5124B05461C6877
:1010AC00A36BD3B91820FFF7C1F943F20E33A06339
:1010BC0003804AF6CD33438041F2342383804EF2D1
:1010CC006D63C3804DF6EC630381052343810B23D1
:1010DC00838101220023C0E90423A36B00221D613C
:1010EC005A6138BD70000020034613F8012B002A0A
:1010FC00FBD1181A013870471D000A085D000A0858
:10110C0089000A088D000A08000000000000000099
:10111C00000000006B040A0875040A087F040A0822
:10112C0089040A0893040A089F040A08AB040A08F5
:10113C00B7040A08BF040A08C9040A08D5040A0837
:10114C000000000000000000DB050A08D1050A08B9
:10115C00C7050A0839050A08BB050A08AF050A08BD
:10116C00A3050A089B050A0891050A0887050A08C1
:10117C0043050A080000000000000000F9050A08F9
:10118C0043060A081B060A08FB050A0823060A0878
:10119C002B060A0833060A083B060A080000000062
:1011AC000000000081060A08D1060A08DF060A08BA
:1011BC006D0A0A08BD060A0883060A0899060A0879
:1011CC00CB060A08AF060A087D060A0800000000D4
:1011DC000000000029080A0819080A081B080A0858
:1011EC005A00252B3033643A253032750025592DA1
:1011FC00256D2D25645425483A254D3A2553257ADD
:10120C000061736374696D65006261756400536598
:10121C007269616C0055534253657269616C31009F
:10122C007479706500706172616D00636D64006942
:10123C006400686E64007374726D0066696C74008F
:10124C006C766C0061646448616E646C65720072EB
:10125C00656D6F766548616E646C657200656E7560
:10126C006D48616E646C657273004A534F4E5374D3
:10127C007265616D4C6F6748616E646C657200617C
:10128C00707000253031307520005D200025640021
:10129C002C200028293A2000205B00636F64652015
:1012AC003D200025690064657461696C73203D20E4
:1012BC00000D0A0066006C6E00666E00636F64655C
:1012CC000064657461696C006E6F6E6500747261A8
:1012DC00636500696E666F007761726E006572728D
:1012EC006F720070616E696300616C6C00000000CD
:1012FC000000000000000000170B0A08670B0A082A
:10130C00750B0A086D0A0A082B0B0A084D0B0A0804
:10131C00390B0A08610B0A08190B0A081D0B0A087D
:10132C000000000000000000310C0A08330C0A0811
:10133C0000000000000000000000000000000000A1
:10134C000000000000000000000000000000000091
:10135C000000000000000000000000000000000081
:10136C000000000000000000000000000000000071
:10137C000000000000000000000000000000000061
:10138C000000000000000000000000000000000051
:10139C004300000049010A0825050A08E5050A086A
:1013AC00250A0A08490A0A085D0A0A08190C0A08DB
:1013BC00B10C0A08E10C0A08D10D0A08550E0A08EE
:1013CC00190F0A08DD0F0A080000000000000000D9
:0413DC00000000000D
:0413E0000000000009
:1013E4000200000003000000040000000D120A08BF
:1013F400000000003C130A085C130A087C130A0866
:1014040000000000000000000000000000000000D8
:101414009C130A0800000000000000000000000007
:1014240000000000000000000000000000000000B8
:1014340000000000000000000000000000000000A8
:101444000000000000000000000000000000000098
:041454001000002064
:10145800FFFFFFFF00000102030405060708090A51
:101468000B0C0D0E0F101112131415161718191A4C
:081478001B1C1D1E1F20280093
:041480007856341254
:04000005080A001CC9
:00000001FF
